{
  "transactions": [
    {
      "hash": "0x29e9efab6e504ddbaa975a0f396a3ef77b4ec241e613e15c911f21d59a38bff9",
      "transactionType": "CALL",
      "contractName": null,
      "contractAddress": "0x0aa732db3691b59881d6f1d1a86e65f3a44aaf8c",
      "function": "approveManuscripts(bytes32[],bool[])",
      "arguments": [
        "[0xbdbbf0929f4ae78c4abc5dc541b11742e5f99858cc575fa60f5e6bd0222c66cc, 0x505242f79b1243202c43482f082fc24b2d3f304216acb409c2778a2aa72064dd]",
        "[true, true]"
      ],
      "transaction": {
        "from": "0x11296402a8f2373fb7fdb57296c1391856695eb3",
        "to": "0x0aa732db3691b59881d6f1d1a86e65f3a44aaf8c",
        "gas": "0x936d8",
        "value": "0x0",
        "input": "0x22817d8a000000000000000000000000000000000000000000000000000000000000004000000000000000000000000000000000000000000000000000000000000000a00000000000000000000000000000000000000000000000000000000000000002bdbbf0929f4ae78c4abc5dc541b11742e5f99858cc575fa60f5e6bd0222c66cc505242f79b1243202c43482f082fc24b2d3f304216acb409c2778a2aa72064dd000000000000000000000000000000000000000000000000000000000000000200000000000000000000000000000000000000000000000000000000000000010000000000000000000000000000000000000000000000000000000000000001",
        "nonce": "0x12",
        "chainId": "0x14a34"
      },
      "additionalContracts": [],
      "isFixedGasLimit": false
    },
    {
      "hash": "0xc3900ba4bbde620b0c0b0526fa50e7d9231bb77dfe9377329659915c6ff910f1",
      "transactionType": "CALL",
      "contractName": null,
      "contractAddress": "0x721b03df571afd7ce5702176cf5979d1d863b815",
      "function": "approveManuscripts(bytes32[],bool[])",
      "arguments": [
        "[0x7f4efc7e746361ae3b04e18461da608687d4267543799462d560a80178e547be, 0x1b3868624012615882fe5975dd9e651aaa2cdd17e60dbf517ab14f6b5614672d, 0x2ddad0a5c81c7423b005be8d4c5f6dba7cf6f43a9614adcf3a52a0dadc38d6ec, 0xbf8217f91ce66a38dbba5cbde168ae0ee6bdb487afdb0c4290bbe899ba07aa85, 0xb70a48f4b1c76665bc5b6350fe87025d2f5a49f0baba12dbb7a148c0bbfd234c, 0x554d42838425b3f3f9df2b0a6febb64063de2b54c39e151af0d3780efa5c8e22, 0x6deadd1cd6beda0edfc743c67f1c3599f0962d39a4b87d49a46e53c546a2f539, 0x5bf5c082e259b3f6904a756833bc937c280faa11b660fc9a48bca7476d9ab050, 0xa9b4d38ebf76a6dd0b756051c45f3807aff08f28970c06c05252c5827db325e8, 0x089ac0e47ca2d1ec6d6e393416bda29ce452c87e259c4f7617794fa774aef64d, 0xbc4f6b576ddcaf721f4a412e4efc77cc4117a04eb7e31c8e41de6246b44c0f2e, 0x5e98422f837ca71c3ec648e401ad27a658b19b354f881cfe46eccdbcd417ea4a, 0x1590c3dc995a2cdd0ed3cc3d2b0852cb7f1f233728228eab7e313b32693eca40, 0x2bddce760e5ff300e0d187a46643ed41a8082dab5ac84e68e6c69bee793362ca]",
        "[true, true, true, true, true, true, true, true, true, true, true, true, true, true]"
      ],
      "transaction": {
        "from": "0x11296402a8f2373fb7fdb57296c1391856695eb3",
        "to": "0x721b03df571afd7ce5702176cf5979d1d863b815",
        "gas": "0x361b53",
        "value": "0x0",
        "input": "0x22817d8a00000000000000000000000000000000000000000000000000000000000000400000000000000000000000000000000000000000000000000000000000000220000000000000000000000000000000000000000000000000000000000000000e7f4efc7e746361ae3b04e18461da608687d4267543799462d560a80178e547be1b3868624012615882fe5975dd9e651aaa2cdd17e60dbf517ab14f6b5614672d2ddad0a5c81c7423b005be8d4c5f6dba7cf6f43a9614adcf3a52a0dadc38d6ecbf8217f91ce66a38dbba5cbde168ae0ee6bdb487afdb0c4290bbe899ba07aa85b70a48f4b1c76665bc5b6350fe87025d2f5a49f0baba12dbb7a148c0bbfd234c554d42838425b3f3f9df2b0a6febb64063de2b54c39e151af0d3780efa5c8e226deadd1cd6beda0edfc743c67f1c3599f0962d39a4b87d49a46e53c546a2f5395bf5c082e259b3f6904a756833bc937c280faa11b660fc9a48bca7476d9ab050a9b4d38ebf76a6dd0b756051c45f3807aff08f28970c06c05252c5827db325e8089ac0e47ca2d1ec6d6e393416bda29ce452c87e259c4f7617794fa774aef64dbc4f6b576ddcaf721f4a412e4efc77cc4117a04eb7e31c8e41de6246b44c0f2e5e98422f837ca71c3ec648e401ad27a658b19b354f881cfe46eccdbcd417ea4a1590c3dc995a2cdd0ed3cc3d2b0852cb7f1f233728228eab7e313b32693eca402bddce760e5ff300e0d187a46643ed41a8082dab5ac84e68e6c69bee793362ca000000000000000000000000000000000000000000000000000000000000000e00000000000000000000000000000000000000000000000000000000000000010000000000000000000000000000000000000000000000000000000000000001000000000000000000000000000000000000000000000000000000000000000100000000000000000000000000000000000000000000000000000000000000010000000000000000000000000000000000000000000000000000000000000001000000000000000000000000000000000000000000000000000000000000000100000000000000000000000000000000000000000000000000000000000000010000000000000000000000000000000000000000000000000000000000000001000000000000000000000000000000000000000000000000000000000000000100000000000000000000000000000000000000000000000000000000000000010000000000000000000000000000000000000000000000000000000000000001000000000000000000000000000000000000000000000000000000000000000100000000000000000000000000000000000000000000000000000000000000010000000000000000000000000000000000000000000000000000000000000001",
        "nonce": "0x13",
        "chainId": "0x14a34"
      },
      "additionalContracts": [],
      "isFixedGasLimit": false
    },
    {
      "hash": "0x8d43849d32f75790f1f2567af0d2c6382e59821f485736cbb4b20d6e470c576f",
      "transactionType": "CALL",
      "contractName": null,
      "contractAddress": "0xd985763b49d1c4ec75acd6179f2fa377d4a709fc",
      "function": "approveManuscripts(bytes32[],bool[])",
      "arguments": [
        "[0x82af40283257c1811e1251ee44746b4042f6dba7bccfc8fce10bc88c777a93dd, 0xd383c2c1e7b1fdfc4f40ab9ed16a64742551d97a44d9558e5ba264dbc24c2f49, 0xaa02b9fb56464aebb72e3affc8c0cf0098f21b71a16edbe5dfdba585ca235a1f, 0xe6a9229d54ef21cdf3883710e0471b7172b1aec0d900c450047286f9e71a797e, 0x5e43e4a0b006edffffa7aa271003406af5b88813883581e7c6ce646df43fae1c, 0x3f238782e2d1fe530275be7a0117362f72060a5203357411a0e9e5370f64e5c0, 0x1c76043499a0f085c41e899c07542bb29e00ca847f57f6fb2cfe8c0ece1fb75f, 0x8117940139ecd759bcd1d46dd32450cdca74401a9786a549378d9a358402c940, 0x06180bc8597f6bddf9face146778f27ed6b42f0e2ad0af65f3ec772479f0f274, 0x54bb61685cae8dcb6c82d9ac14bcea30133ef56b778691be9cb0cc562fe4298e, 0xa781ed8dcf9065526d7882a9db3854c1061dc955f538eeff122a9f171d2cd8b2, 0xf121d49233a44a600cc06f74f65ec224e3910baa345ad5ae3ed52391f0a5f2fe, 0x7511c2d4b9a4bfdd6b7d8da7675fe27ba9ec29c4437406d3f5633c945b294d9a, 0x77999ef0b8579302b62702162aba2665922d38a2f86bd4f86fc5dd3284b17294, 0x59cec783959861891222b72e3a5ce0a86a5f36ec2e96ca625b4a687bbb2dc087, 0x1354f7ba09c8932ca38f301aac041dbbd880e4262d105e1f238677892fdd1ead, 0x94e6e9913fa143a53572fa75f0382989b655dba3bf02b358d335e9749dffb81e, 0x23f5df632201ca9afeda70a0b402b5d5c50c70a6bdf5d2f03fce57ea3ade4b77, 0xea32055c2db3c1bd0f8d787fcbd5e1e74f62770606451d2030db656f7d7e111f, 0xef42369ff546d38e261f30cd13dabe840fb3c8260fd8d03040838e8e6cb04ba3, 0xe53789c2fc12c11eb80173432a49dc557c4ce33e7273f4bd817e58b82d99c7da, 0x6ef977eb801c8883a978e90baed15b8cc70dd3cb6120aed744f8cf7d2956ff22, 0x4acb370b05dd6e8edb51c03a2dcb373606454a0a3db175ef488b6d46c90843aa, 0x5d3eb6c6e6729fdd68bed8f9562ced036c36f65d79d82eee4c8c02acdbe8e9e4, 0xab5208296f4ead6cad174d12c0bf21d44395bd060d55109d0f8774fd23706f69]",
        "[true, true, true, true, true, true, true, true, true, true, true, true, true, true, true, true, true, true, true, true, true, true, true, true, true]"
      ],
      "transaction": {
        "from": "0x11296402a8f2373fb7fdb57296c1391856695eb3",
        "to": "0xd985763b49d1c4ec75acd6179f2fa377d4a709fc",
        "gas": "0x5fba2d",
        "value": "0x0",
        "input": "0x22817d8a00000000000000000000000000000000000000000000000000000000000000400000000000000000000000000000000000000000000000000000000000000380000000000000000000000000000000000000000000000000000000000000001982af40283257c1811e1251ee44746b4042f6dba7bccfc8fce10bc88c777a93ddd383c2c1e7b1fdfc4f40ab9ed16a64742551d97a44d9558e5ba264dbc24c2f49aa02b9fb56464aebb72e3affc8c0cf0098f21b71a16edbe5dfdba585ca235a1fe6a9229d54ef21cdf3883710e0471b7172b1aec0d900c450047286f9e71a797e5e43e4a0b006edffffa7aa271003406af5b88813883581e7c6ce646df43fae1c3f238782e2d1fe530275be7a0117362f72060a5203357411a0e9e5370f64e5c01c76043499a0f085c41e899c07542bb29e00ca847f57f6fb2cfe8c0ece1fb75f8117940139ecd759bcd1d46dd32450cdca74401a9786a549378d9a358402c94006180bc8597f6bddf9face146778f27ed6b42f0e2ad0af65f3ec772479f0f27454bb61685cae8dcb6c82d9ac14bcea30133ef56b778691be9cb0cc562fe4298ea781ed8dcf9065526d7882a9db3854c1061dc955f538eeff122a9f171d2cd8b2f121d49233a44a600cc06f74f65ec224e3910baa345ad5ae3ed52391f0a5f2fe7511c2d4b9a4bfdd6b7d8da7675fe27ba9ec29c4437406d3f5633c945b294d9a77999ef0b8579302b62702162aba2665922d38a2f86bd4f86fc5dd3284b1729459cec783959861891222b72e3a5ce0a86a5f36ec2e96ca625b4a687bbb2dc0871354f7ba09c8932ca38f301aac041dbbd880e4262d105e1f238677892fdd1ead94e6e9913fa143a53572fa75f0382989b655dba3bf02b358d335e9749dffb81e23f5df632201ca9afeda70a0b402b5d5c50c70a6bdf5d2f03fce57ea3ade4b77ea32055c2db3c1bd0f8d787fcbd5e1e74f62770606451d2030db656f7d7e111fef42369ff546d38e261f30cd13dabe840fb3c8260fd8d03040838e8e6cb04ba3e53789c2fc12c11eb80173432a49dc557c4ce33e7273f4bd817e58b82d99c7da6ef977eb801c8883a978e90baed15b8cc70dd3cb6120aed744f8cf7d2956ff224acb370b05dd6e8edb51c03a2dcb373606454a0a3db175ef488b6d46c90843aa5d3eb6c6e6729fdd68bed8f9562ced036c36f65d79d82eee4c8c02acdbe8e9e4ab5208296f4ead6cad174d12c0bf21d44395bd060d55109d0f8774fd23706f6900000000000000000000000000000000000000000000000000000000000000190000000000000000000000000000000000000000000000000000000000000001000000000000000000000000000000000000000000000000000000000000000100000000000000000000000000000000000000000000000000000000000000010000000000000000000000000000000000000000000000000000000000000001000000000000000000000000000000000000000000000000000000000000000100000000000000000000000000000000000000000000000000000000000000010000000000000000000000000000000000000000000000000000000000000001000000000000000000000000000000000000000000000000000000000000000100000000000000000000000000000000000000000000000000000000000000010000000000000000000000000000000000000000000000000000000000000001000000000000000000000000000000000000000000000000000000000000000100000000000000000000000000000000000000000000000000000000000000010000000000000000000000000000000000000000000000000000000000000001000000000000000000000000000000000000000000000000000000000000000100000000000000000000000000000000000000000000000000000000000000010000000000000000000000000000000000000000000000000000000000000001000000000000000000000000000000000000000000000000000000000000000100000000000000000000000000000000000000000000000000000000000000010000000000000000000000000000000000000000000000000000000000000001000000000000000000000000000000000000000000000000000000000000000100000000000000000000000000000000000000000000000000000000000000010000000000000000000000000000000000000000000000000000000000000001000000000000000000000000000000000000000000000000000000000000000100000000000000000000000000000000000000000000000000000000000000010000000000000000000000000000000000000000000000000000000000000001",
        "nonce": "0x14",
        "chainId": "0x14a34"
      },
      "additionalContracts": [],
      "isFixedGasLimit": false
    }
  ],
  "receipts": [
    {
      "status": "0x1",
      "cumulativeGasUsed": "0x3d8c9e",
      "logs": [
        {
          "address": "0x0aa732db3691b59881d6f1d1a86e65f3a44aaf8c",
          "topics": [
            "0xddf252ad1be2c89b69c2b068fc378daa952ba7f163c4a11628f55a4df523b3ef",
            "0x0000000000000000000000000000000000000000000000000000000000000000",
            "0x00000000000000000000000012bf0bd36a5d5bda51a78191ec41ba51b60b59e8",
            "0x0000000000000000000000000000000000000000000000000000000000000001"
          ],
          "data": "0x",
          "blockHash": "0x832149b0439396555e82ff8f3c2816066362ffd9fb83a5e0fe313a24c77b49e5",
          "blockNumber": "0x13ec95b",
          "transactionHash": "0x29e9efab6e504ddbaa975a0f396a3ef77b4ec241e613e15c911f21d59a38bff9",
          "transactionIndex": "0x19",
          "logIndex": "0x2a",
          "removed": false
        },
        {
          "address": "0x0aa732db3691b59881d6f1d1a86e65f3a44aaf8c",
          "topics": [
            "0xf8e1a15aba9398e019f0b49df1a4fde98ee17ae345cb5f6b5e2c27f5033e8ce7"
          ],
          "data": "0x0000000000000000000000000000000000000000000000000000000000000001",
          "blockHash": "0x832149b0439396555e82ff8f3c2816066362ffd9fb83a5e0fe313a24c77b49e5",
          "blockNumber": "0x13ec95b",
          "transactionHash": "0x29e9efab6e504ddbaa975a0f396a3ef77b4ec241e613e15c911f21d59a38bff9",
          "transactionIndex": "0x19",
          "logIndex": "0x2b",
          "removed": false
        },
        {
          "address": "0x0aa732db3691b59881d6f1d1a86e65f3a44aaf8c",
          "topics": [
            "0x9f4f924edcbd42fe3de2825e2be11564b45b4ad0cc61e4b60c08880c38ab8f57",
            "0xbdbbf0929f4ae78c4abc5dc541b11742e5f99858cc575fa60f5e6bd0222c66cc",
            "0x0000000000000000000000000000000000000000000000000000000000000001"
          ],
          "data": "0x",
          "blockHash": "0x832149b0439396555e82ff8f3c2816066362ffd9fb83a5e0fe313a24c77b49e5",
          "blockNumber": "0x13ec95b",
          "transactionHash": "0x29e9efab6e504ddbaa975a0f396a3ef77b4ec241e613e15c911f21d59a38bff9",
          "transactionIndex": "0x19",
          "logIndex": "0x2c",
          "removed": false
        },
        {
          "address": "0x0aa732db3691b59881d6f1d1a86e65f3a44aaf8c",
          "topics": [
            "0xddf252ad1be2c89b69c2b068fc378daa952ba7f163c4a11628f55a4df523b3ef",
            "0x0000000000000000000000000000000000000000000000000000000000000000",
            "0x00000000000000000000000012bf0bd36a5d5bda51a78191ec41ba51b60b59e8",
            "0x0000000000000000000000000000000000000000000000000000000000000002"
          ],
          "data": "0x",
          "blockHash": "0x832149b0439396555e82ff8f3c2816066362ffd9fb83a5e0fe313a24c77b49e5",
          "blockNumber": "0x13ec95b",
          "transactionHash": "0x29e9efab6e504ddbaa975a0f396a3ef77b4ec241e613e15c911f21d59a38bff9",
          "transactionIndex": "0x19",
          "logIndex": "0x2d",
          "removed": false
        },
        {
          "address": "0x0aa732db3691b59881d6f1d1a86e65f3a44aaf8c",
          "topics": [
            "0xf8e1a15aba9398e019f0b49df1a4fde98ee17ae345cb5f6b5e2c27f5033e8ce7"
          ],
          "data": "0x0000000000000000000000000000000000000000000000000000000000000002",
          "blockHash": "0x832149b0439396555e82ff8f3c2816066362ffd9fb83a5e0fe313a24c77b49e5",
          "blockNumber": "0x13ec95b",
          "transactionHash": "0x29e9efab6e504ddbaa975a0f396a3ef77b4ec241e613e15c911f21d59a38bff9",
          "transactionIndex": "0x19",
          "logIndex": "0x2e",
          "removed": false
        },
        {
          "address": "0x0aa732db3691b59881d6f1d1a86e65f3a44aaf8c",
          "topics": [
            "0x9f4f924edcbd42fe3de2825e2be11564b45b4ad0cc61e4b60c08880c38ab8f57",
            "0x505242f79b1243202c43482f082fc24b2d3f304216acb409c2778a2aa72064dd",
            "0x0000000000000000000000000000000000000000000000000000000000000002"
          ],
          "data": "0x",
          "blockHash": "0x832149b0439396555e82ff8f3c2816066362ffd9fb83a5e0fe313a24c77b49e5",
          "blockNumber": "0x13ec95b",
          "transactionHash": "0x29e9efab6e504ddbaa975a0f396a3ef77b4ec241e613e15c911f21d59a38bff9",
          "transactionIndex": "0x19",
          "logIndex": "0x2f",
          "removed": false
        }
      ],
      "logsBloom": "0x04000000100000000000000000000000000000000000000000000000000000000000000000000000000400000000000000000000000000000000002000040000002000000000000000000008020000000000000000040000000000000000000000000000020000000000000000000800000000000000010800000010000000000000000000000002000800000000004000000000000000000000000000000000000000010000000000000100000000002000000000000000000000000000008000000002000000100000000000000000000000000000000000000000000060000000000000010000200000000000000000000000008000000000002000000000",
      "type": "0x2",
      "transactionHash": "0x29e9efab6e504ddbaa975a0f396a3ef77b4ec241e613e15c911f21d59a38bff9",
      "transactionIndex": "0x19",
      "blockHash": "0x832149b0439396555e82ff8f3c2816066362ffd9fb83a5e0fe313a24c77b49e5",
      "blockNumber": "0x13ec95b",
      "gasUsed": "0x64ce3",
      "effectiveGasPrice": "0x2c7c2",
      "blobGasUsed": "0x0",
      "from": "0x11296402a8f2373fb7fdb57296c1391856695eb3",
      "to": "0x0aa732db3691b59881d6f1d1a86e65f3a44aaf8c",
      "contractAddress": null,
      "l1BaseFeeScalar": "0x44d",
      "l1BlobBaseFee": "0x198815",
      "l1BlobBaseFeeScalar": "0xa118b",
      "l1Fee": "0x61b38408e",
      "l1GasPrice": "0x2534c2b02",
      "l1GasUsed": "0x942"
    },
    {
      "status": "0x1",
      "cumulativeGasUsed": "0x7d6e99",
      "logs": [
        {
          "address": "0x721b03df571afd7ce5702176cf5979d1d863b815",
          "topics": [
            "0xddf252ad1be2c89b69c2b068fc378daa952ba7f163c4a11628f55a4df523b3ef",
            "0x0000000000000000000000000000000000000000000000000000000000000000",
            "0x00000000000000000000000012bf0bd36a5d5bda51a78191ec41ba51b60b59e8",
            "0x0000000000000000000000000000000000000000000000000000000000000001"
          ],
          "data": "0x",
          "blockHash": "0x7ed5c51d2cd601b41abc0fe76218adb4c8d8921c5a7ca5d2ddabd8afe6b064cf",
          "blockNumber": "0x13ec95c",
          "transactionHash": "0xc3900ba4bbde620b0c0b0526fa50e7d9231bb77dfe9377329659915c6ff910f1",
          "transactionIndex": "0x1d",
          "logIndex": "0x3f",
          "removed": false
        },
        {
          "address": "0x721b03df571afd7ce5702176cf5979d1d863b815",
          "topics": [
            "0xf8e1a15aba9398e019f0b49df1a4fde98ee17ae345cb5f6b5e2c27f5033e8ce7"
          ],
          "data": "0x0000000000000000000000000000000000000000000000000000000000000001",
          "blockHash": "0x7ed5c51d2cd601b41abc0fe76218adb4c8d8921c5a7ca5d2ddabd8afe6b064cf",
          "blockNumber": "0x13ec95c",
          "transactionHash": "0xc3900ba4bbde620b0c0b0526fa50e7d9231bb77dfe9377329659915c6ff910f1",
          "transactionIndex": "0x1d",
          "logIndex": "0x40",
          "removed": false
        },
        {
          "address": "0x721b03df571afd7ce5702176cf5979d1d863b815",
          "topics": [
            "0x9f4f924edcbd42fe3de2825e2be11564b45b4ad0cc61e4b60c08880c38ab8f57",
            "0x7f4efc7e746361ae3b04e18461da608687d4267543799462d560a80178e547be",
            "0x0000000000000000000000000000000000000000000000000000000000000001"
          ],
          "data": "0x",
          "blockHash": "0x7ed5c51d2cd601b41abc0fe76218adb4c8d8921c5a7ca5d2ddabd8afe6b064cf",
          "blockNumber": "0x13ec95c",
          "transactionHash": "0xc3900ba4bbde620b0c0b0526fa50e7d9231bb77dfe9377329659915c6ff910f1",
          "transactionIndex": "0x1d",
          "logIndex": "0x41",
          "removed": false
        },
        {
          "address": "0x721b03df571afd7ce5702176cf5979d1d863b815",
          "topics": [
            "0xddf252ad1be2c89b69c2b068fc378daa952ba7f163c4a11628f55a4df523b3ef",
            "0x0000000000000000000000000000000000000000000000000000000000000000",
            "0x00000000000000000000000012bf0bd36a5d5bda51a78191ec41ba51b60b59e8",
            "0x0000000000000000000000000000000000000000000000000000000000000002"
          ],
          "data": "0x",
          "blockHash": "0x7ed5c51d2cd601b41abc0fe76218adb4c8d8921c5a7ca5d2ddabd8afe6b064cf",
          "blockNumber": "0x13ec95c",
          "transactionHash": "0xc3900ba4bbde620b0c0b0526fa50e7d9231bb77dfe9377329659915c6ff910f1",
          "transactionIndex": "0x1d",
          "logIndex": "0x42",
          "removed": false
        },
        {
          "address": "0x721b03df571afd7ce5702176cf5979d1d863b815",
          "topics": [
            "0xf8e1a15aba9398e019f0b49df1a4fde98ee17ae345cb5f6b5e2c27f5033e8ce7"
          ],
          "data": "0x0000000000000000000000000000000000000000000000000000000000000002",
          "blockHash": "0x7ed5c51d2cd601b41abc0fe76218adb4c8d8921c5a7ca5d2ddabd8afe6b064cf",
          "blockNumber": "0x13ec95c",
          "transactionHash": "0xc3900ba4bbde620b0c0b0526fa50e7d9231bb77dfe9377329659915c6ff910f1",
          "transactionIndex": "0x1d",
          "logIndex": "0x43",
          "removed": false
        },
        {
          "address": "0x721b03df571afd7ce5702176cf5979d1d863b815",
          "topics": [
            "0x9f4f924edcbd42fe3de2825e2be11564b45b4ad0cc61e4b60c08880c38ab8f57",
            "0x1b3868624012615882fe5975dd9e651aaa2cdd17e60dbf517ab14f6b5614672d",
            "0x0000000000000000000000000000000000000000000000000000000000000002"
          ],
          "data": "0x",
          "blockHash": "0x7ed5c51d2cd601b41abc0fe76218adb4c8d8921c5a7ca5d2ddabd8afe6b064cf",
          "blockNumber": "0x13ec95c",
          "transactionHash": "0xc3900ba4bbde620b0c0b0526fa50e7d9231bb77dfe9377329659915c6ff910f1",
          "transactionIndex": "0x1d",
          "logIndex": "0x44",
          "removed": false
        },
        {
          "address": "0x721b03df571afd7ce5702176cf5979d1d863b815",
          "topics": [
            "0xddf252ad1be2c89b69c2b068fc378daa952ba7f163c4a11628f55a4df523b3ef",
            "0x0000000000000000000000000000000000000000000000000000000000000000",
            "0x00000000000000000000000012bf0bd36a5d5bda51a78191ec41ba51b60b59e8",
            "0x0000000000000000000000000000000000000000000000000000000000000003"
          ],
          "data": "0x",
          "blockHash": "0x7ed5c51d2cd601b41abc0fe76218adb4c8d8921c5a7ca5d2ddabd8afe6b064cf",
          "blockNumber": "0x13ec95c",
          "transactionHash": "0xc3900ba4bbde620b0c0b0526fa50e7d9231bb77dfe9377329659915c6ff910f1",
          "transactionIndex": "0x1d",
          "logIndex": "0x45",
          "removed": false
        },
        {
          "address": "0x721b03df571afd7ce5702176cf5979d1d863b815",
          "topics": [
            "0xf8e1a15aba9398e019f0b49df1a4fde98ee17ae345cb5f6b5e2c27f5033e8ce7"
          ],
          "data": "0x0000000000000000000000000000000000000000000000000000000000000003",
          "blockHash": "0x7ed5c51d2cd601b41abc0fe76218adb4c8d8921c5a7ca5d2ddabd8afe6b064cf",
          "blockNumber": "0x13ec95c",
          "transactionHash": "0xc3900ba4bbde620b0c0b0526fa50e7d9231bb77dfe9377329659915c6ff910f1",
          "transactionIndex": "0x1d",
          "logIndex": "0x46",
          "removed": false
        },
        {
          "address": "0x721b03df571afd7ce5702176cf5979d1d863b815",
          "topics": [
            "0x9f4f924edcbd42fe3de2825e2be11564b45b4ad0cc61e4b60c08880c38ab8f57",
            "0x2ddad0a5c81c7423b005be8d4c5f6dba7cf6f43a9614adcf3a52a0dadc38d6ec",
            "0x0000000000000000000000000000000000000000000000000000000000000003"
          ],
          "data": "0x",
          "blockHash": "0x7ed5c51d2cd601b41abc0fe76218adb4c8d8921c5a7ca5d2ddabd8afe6b064cf",
          "blockNumber": "0x13ec95c",
          "transactionHash": "0xc3900ba4bbde620b0c0b0526fa50e7d9231bb77dfe9377329659915c6ff910f1",
          "transactionIndex": "0x1d",
          "logIndex": "0x47",
          "removed": false
        },
        {
          "address": "0x721b03df571afd7ce5702176cf5979d1d863b815",
          "topics": [
            "0xddf252ad1be2c89b69c2b068fc378daa952ba7f163c4a11628f55a4df523b3ef",
            "0x0000000000000000000000000000000000000000000000000000000000000000",
            "0x00000000000000000000000012bf0bd36a5d5bda51a78191ec41ba51b60b59e8",
            "0x0000000000000000000000000000000000000000000000000000000000000004"
          ],
          "data": "0x",
          "blockHash": "0x7ed5c51d2cd601b41abc0fe76218adb4c8d8921c5a7ca5d2ddabd8afe6b064cf",
          "blockNumber": "0x13ec95c",
          "transactionHash": "0xc3900ba4bbde620b0c0b0526fa50e7d9231bb77dfe9377329659915c6ff910f1",
          "transactionIndex": "0x1d",
          "logIndex": "0x48",
          "removed": false
        },
        {
          "address": "0x721b03df571afd7ce5702176cf5979d1d863b815",
          "topics": [
            "0xf8e1a15aba9398e019f0b49df1a4fde98ee17ae345cb5f6b5e2c27f5033e8ce7"
          ],
          "data": "0x0000000000000000000000000000000000000000000000000000000000000004",
          "blockHash": "0x7ed5c51d2cd601b41abc0fe76218adb4c8d8921c5a7ca5d2ddabd8afe6b064cf",
          "blockNumber": "0x13ec95c",
          "transactionHash": "0xc3900ba4bbde620b0c0b0526fa50e7d9231bb77dfe9377329659915c6ff910f1",
          "transactionIndex": "0x1d",
          "logIndex": "0x49",
          "removed": false
        },
        {
          "address": "0x721b03df571afd7ce5702176cf5979d1d863b815",
          "topics": [
            "0x9f4f924edcbd42fe3de2825e2be11564b45b4ad0cc61e4b60c08880c38ab8f57",
            "0xbf8217f91ce66a38dbba5cbde168ae0ee6bdb487afdb0c4290bbe899ba07aa85",
            "0x0000000000000000000000000000000000000000000000000000000000000004"
          ],
          "data": "0x",
          "blockHash": "0x7ed5c51d2cd601b41abc0fe76218adb4c8d8921c5a7ca5d2ddabd8afe6b064cf",
          "blockNumber": "0x13ec95c",
          "transactionHash": "0xc3900ba4bbde620b0c0b0526fa50e7d9231bb77dfe9377329659915c6ff910f1",
          "transactionIndex": "0x1d",
          "logIndex": "0x4a",
          "removed": false
        },
        {
          "address": "0x721b03df571afd7ce5702176cf5979d1d863b815",
          "topics": [
            "0xddf252ad1be2c89b69c2b068fc378daa952ba7f163c4a11628f55a4df523b3ef",
            "0x0000000000000000000000000000000000000000000000000000000000000000",
            "0x00000000000000000000000012bf0bd36a5d5bda51a78191ec41ba51b60b59e8",
            "0x0000000000000000000000000000000000000000000000000000000000000005"
          ],
          "data": "0x",
          "blockHash": "0x7ed5c51d2cd601b41abc0fe76218adb4c8d8921c5a7ca5d2ddabd8afe6b064cf",
          "blockNumber": "0x13ec95c",
          "transactionHash": "0xc3900ba4bbde620b0c0b0526fa50e7d9231bb77dfe9377329659915c6ff910f1",
          "transactionIndex": "0x1d",
          "logIndex": "0x4b",
          "removed": false
        },
        {
          "address": "0x721b03df571afd7ce5702176cf5979d1d863b815",
          "topics": [
            "0xf8e1a15aba9398e019f0b49df1a4fde98ee17ae345cb5f6b5e2c27f5033e8ce7"
          ],
          "data": "0x0000000000000000000000000000000000000000000000000000000000000005",
          "blockHash": "0x7ed5c51d2cd601b41abc0fe76218adb4c8d8921c5a7ca5d2ddabd8afe6b064cf",
          "blockNumber": "0x13ec95c",
          "transactionHash": "0xc3900ba4bbde620b0c0b0526fa50e7d9231bb77dfe9377329659915c6ff910f1",
          "transactionIndex": "0x1d",
          "logIndex": "0x4c",
          "removed": false
        },
        {
          "address": "0x721b03df571afd7ce5702176cf5979d1d863b815",
          "topics": [
            "0x9f4f924edcbd42fe3de2825e2be11564b45b4ad0cc61e4b60c08880c38ab8f57",
            "0xb70a48f4b1c76665bc5b6350fe87025d2f5a49f0baba12dbb7a148c0bbfd234c",
            "0x0000000000000000000000000000000000000000000000000000000000000005"
          ],
          "data": "0x",
          "blockHash": "0x7ed5c51d2cd601b41abc0fe76218adb4c8d8921c5a7ca5d2ddabd8afe6b064cf",
          "blockNumber": "0x13ec95c",
          "transactionHash": "0xc3900ba4bbde620b0c0b0526fa50e7d9231bb77dfe9377329659915c6ff910f1",
          "transactionIndex": "0x1d",
          "logIndex": "0x4d",
          "removed": false
        },
        {
          "address": "0x721b03df571afd7ce5702176cf5979d1d863b815",
          "topics": [
            "0xddf252ad1be2c89b69c2b068fc378daa952ba7f163c4a11628f55a4df523b3ef",
            "0x0000000000000000000000000000000000000000000000000000000000000000",
            "0x00000000000000000000000012bf0bd36a5d5bda51a78191ec41ba51b60b59e8",
            "0x0000000000000000000000000000000000000000000000000000000000000006"
          ],
          "data": "0x",
          "blockHash": "0x7ed5c51d2cd601b41abc0fe76218adb4c8d8921c5a7ca5d2ddabd8afe6b064cf",
          "blockNumber": "0x13ec95c",
          "transactionHash": "0xc3900ba4bbde620b0c0b0526fa50e7d9231bb77dfe9377329659915c6ff910f1",
          "transactionIndex": "0x1d",
          "logIndex": "0x4e",
          "removed": false
        },
        {
          "address": "0x721b03df571afd7ce5702176cf5979d1d863b815",
          "topics": [
            "0xf8e1a15aba9398e019f0b49df1a4fde98ee17ae345cb5f6b5e2c27f5033e8ce7"
          ],
          "data": "0x0000000000000000000000000000000000000000000000000000000000000006",
          "blockHash": "0x7ed5c51d2cd601b41abc0fe76218adb4c8d8921c5a7ca5d2ddabd8afe6b064cf",
          "blockNumber": "0x13ec95c",
          "transactionHash": "0xc3900ba4bbde620b0c0b0526fa50e7d9231bb77dfe9377329659915c6ff910f1",
          "transactionIndex": "0x1d",
          "logIndex": "0x4f",
          "removed": false
        },
        {
          "address": "0x721b03df571afd7ce5702176cf5979d1d863b815",
          "topics": [
            "0x9f4f924edcbd42fe3de2825e2be11564b45b4ad0cc61e4b60c08880c38ab8f57",
            "0x554d42838425b3f3f9df2b0a6febb64063de2b54c39e151af0d3780efa5c8e22",
            "0x0000000000000000000000000000000000000000000000000000000000000006"
          ],
          "data": "0x",
          "blockHash": "0x7ed5c51d2cd601b41abc0fe76218adb4c8d8921c5a7ca5d2ddabd8afe6b064cf",
          "blockNumber": "0x13ec95c",
          "transactionHash": "0xc3900ba4bbde620b0c0b0526fa50e7d9231bb77dfe9377329659915c6ff910f1",
          "transactionIndex": "0x1d",
          "logIndex": "0x50",
          "removed": false
        },
        {
          "address": "0x721b03df571afd7ce5702176cf5979d1d863b815",
          "topics": [
            "0xddf252ad1be2c89b69c2b068fc378daa952ba7f163c4a11628f55a4df523b3ef",
            "0x0000000000000000000000000000000000000000000000000000000000000000",
            "0x00000000000000000000000012bf0bd36a5d5bda51a78191ec41ba51b60b59e8",
            "0x0000000000000000000000000000000000000000000000000000000000000007"
          ],
          "data": "0x",
          "blockHash": "0x7ed5c51d2cd601b41abc0fe76218adb4c8d8921c5a7ca5d2ddabd8afe6b064cf",
          "blockNumber": "0x13ec95c",
          "transactionHash": "0xc3900ba4bbde620b0c0b0526fa50e7d9231bb77dfe9377329659915c6ff910f1",
          "transactionIndex": "0x1d",
          "logIndex": "0x51",
          "removed": false
        },
        {
          "address": "0x721b03df571afd7ce5702176cf5979d1d863b815",
          "topics": [
            "0xf8e1a15aba9398e019f0b49df1a4fde98ee17ae345cb5f6b5e2c27f5033e8ce7"
          ],
          "data": "0x0000000000000000000000000000000000000000000000000000000000000007",
          "blockHash": "0x7ed5c51d2cd601b41abc0fe76218adb4c8d8921c5a7ca5d2ddabd8afe6b064cf",
          "blockNumber": "0x13ec95c",
          "transactionHash": "0xc3900ba4bbde620b0c0b0526fa50e7d9231bb77dfe9377329659915c6ff910f1",
          "transactionIndex": "0x1d",
          "logIndex": "0x52",
          "removed": false
        },
        {
          "address": "0x721b03df571afd7ce5702176cf5979d1d863b815",
          "topics": [
            "0x9f4f924edcbd42fe3de2825e2be11564b45b4ad0cc61e4b60c08880c38ab8f57",
            "0x6deadd1cd6beda0edfc743c67f1c3599f0962d39a4b87d49a46e53c546a2f539",
            "0x0000000000000000000000000000000000000000000000000000000000000007"
          ],
          "data": "0x",
          "blockHash": "0x7ed5c51d2cd601b41abc0fe76218adb4c8d8921c5a7ca5d2ddabd8afe6b064cf",
          "blockNumber": "0x13ec95c",
          "transactionHash": "0xc3900ba4bbde620b0c0b0526fa50e7d9231bb77dfe9377329659915c6ff910f1",
          "transactionIndex": "0x1d",
          "logIndex": "0x53",
          "removed": false
        },
        {
          "address": "0x721b03df571afd7ce5702176cf5979d1d863b815",
          "topics": [
            "0xddf252ad1be2c89b69c2b068fc378daa952ba7f163c4a11628f55a4df523b3ef",
            "0x0000000000000000000000000000000000000000000000000000000000000000",
            "0x00000000000000000000000012bf0bd36a5d5bda51a78191ec41ba51b60b59e8",
            "0x0000000000000000000000000000000000000000000000000000000000000008"
          ],
          "data": "0x",
          "blockHash": "0x7ed5c51d2cd601b41abc0fe76218adb4c8d8921c5a7ca5d2ddabd8afe6b064cf",
          "blockNumber": "0x13ec95c",
          "transactionHash": "0xc3900ba4bbde620b0c0b0526fa50e7d9231bb77dfe9377329659915c6ff910f1",
          "transactionIndex": "0x1d",
          "logIndex": "0x54",
          "removed": false
        },
        {
          "address": "0x721b03df571afd7ce5702176cf5979d1d863b815",
          "topics": [
            "0xf8e1a15aba9398e019f0b49df1a4fde98ee17ae345cb5f6b5e2c27f5033e8ce7"
          ],
          "data": "0x0000000000000000000000000000000000000000000000000000000000000008",
          "blockHash": "0x7ed5c51d2cd601b41abc0fe76218adb4c8d8921c5a7ca5d2ddabd8afe6b064cf",
          "blockNumber": "0x13ec95c",
          "transactionHash": "0xc3900ba4bbde620b0c0b0526fa50e7d9231bb77dfe9377329659915c6ff910f1",
          "transactionIndex": "0x1d",
          "logIndex": "0x55",
          "removed": false
        },
        {
          "address": "0x721b03df571afd7ce5702176cf5979d1d863b815",
          "topics": [
            "0x9f4f924edcbd42fe3de2825e2be11564b45b4ad0cc61e4b60c08880c38ab8f57",
            "0x5bf5c082e259b3f6904a756833bc937c280faa11b660fc9a48bca7476d9ab050",
            "0x0000000000000000000000000000000000000000000000000000000000000008"
          ],
          "data": "0x",
          "blockHash": "0x7ed5c51d2cd601b41abc0fe76218adb4c8d8921c5a7ca5d2ddabd8afe6b064cf",
          "blockNumber": "0x13ec95c",
          "transactionHash": "0xc3900ba4bbde620b0c0b0526fa50e7d9231bb77dfe9377329659915c6ff910f1",
          "transactionIndex": "0x1d",
          "logIndex": "0x56",
          "removed": false
        },
        {
          "address": "0x721b03df571afd7ce5702176cf5979d1d863b815",
          "topics": [
            "0xddf252ad1be2c89b69c2b068fc378daa952ba7f163c4a11628f55a4df523b3ef",
            "0x0000000000000000000000000000000000000000000000000000000000000000",
            "0x00000000000000000000000012bf0bd36a5d5bda51a78191ec41ba51b60b59e8",
            "0x0000000000000000000000000000000000000000000000000000000000000009"
          ],
          "data": "0x",
          "blockHash": "0x7ed5c51d2cd601b41abc0fe76218adb4c8d8921c5a7ca5d2ddabd8afe6b064cf",
          "blockNumber": "0x13ec95c",
          "transactionHash": "0xc3900ba4bbde620b0c0b0526fa50e7d9231bb77dfe9377329659915c6ff910f1",
          "transactionIndex": "0x1d",
          "logIndex": "0x57",
          "removed": false
        },
        {
          "address": "0x721b03df571afd7ce5702176cf5979d1d863b815",
          "topics": [
            "0xf8e1a15aba9398e019f0b49df1a4fde98ee17ae345cb5f6b5e2c27f5033e8ce7"
          ],
          "data": "0x0000000000000000000000000000000000000000000000000000000000000009",
          "blockHash": "0x7ed5c51d2cd601b41abc0fe76218adb4c8d8921c5a7ca5d2ddabd8afe6b064cf",
          "blockNumber": "0x13ec95c",
          "transactionHash": "0xc3900ba4bbde620b0c0b0526fa50e7d9231bb77dfe9377329659915c6ff910f1",
          "transactionIndex": "0x1d",
          "logIndex": "0x58",
          "removed": false
        },
        {
          "address": "0x721b03df571afd7ce5702176cf5979d1d863b815",
          "topics": [
            "0x9f4f924edcbd42fe3de2825e2be11564b45b4ad0cc61e4b60c08880c38ab8f57",
            "0xa9b4d38ebf76a6dd0b756051c45f3807aff08f28970c06c05252c5827db325e8",
            "0x0000000000000000000000000000000000000000000000000000000000000009"
          ],
          "data": "0x",
          "blockHash": "0x7ed5c51d2cd601b41abc0fe76218adb4c8d8921c5a7ca5d2ddabd8afe6b064cf",
          "blockNumber": "0x13ec95c",
          "transactionHash": "0xc3900ba4bbde620b0c0b0526fa50e7d9231bb77dfe9377329659915c6ff910f1",
          "transactionIndex": "0x1d",
          "logIndex": "0x59",
          "removed": false
        },
        {
          "address": "0x721b03df571afd7ce5702176cf5979d1d863b815",
          "topics": [
            "0xddf252ad1be2c89b69c2b068fc378daa952ba7f163c4a11628f55a4df523b3ef",
            "0x0000000000000000000000000000000000000000000000000000000000000000",
            "0x00000000000000000000000012bf0bd36a5d5bda51a78191ec41ba51b60b59e8",
            "0x000000000000000000000000000000000000000000000000000000000000000a"
          ],
          "data": "0x",
          "blockHash": "0x7ed5c51d2cd601b41abc0fe76218adb4c8d8921c5a7ca5d2ddabd8afe6b064cf",
          "blockNumber": "0x13ec95c",
          "transactionHash": "0xc3900ba4bbde620b0c0b0526fa50e7d9231bb77dfe9377329659915c6ff910f1",
          "transactionIndex": "0x1d",
          "logIndex": "0x5a",
          "removed": false
        },
        {
          "address": "0x721b03df571afd7ce5702176cf5979d1d863b815",
          "topics": [
            "0xf8e1a15aba9398e019f0b49df1a4fde98ee17ae345cb5f6b5e2c27f5033e8ce7"
          ],
          "data": "0x000000000000000000000000000000000000000000000000000000000000000a",
          "blockHash": "0x7ed5c51d2cd601b41abc0fe76218adb4c8d8921c5a7ca5d2ddabd8afe6b064cf",
          "blockNumber": "0x13ec95c",
          "transactionHash": "0xc3900ba4bbde620b0c0b0526fa50e7d9231bb77dfe9377329659915c6ff910f1",
          "transactionIndex": "0x1d",
          "logIndex": "0x5b",
          "removed": false
        },
        {
          "address": "0x721b03df571afd7ce5702176cf5979d1d863b815",
          "topics": [
            "0x9f4f924edcbd42fe3de2825e2be11564b45b4ad0cc61e4b60c08880c38ab8f57",
            "0x089ac0e47ca2d1ec6d6e393416bda29ce452c87e259c4f7617794fa774aef64d",
            "0x000000000000000000000000000000000000000000000000000000000000000a"
          ],
          "data": "0x",
          "blockHash": "0x7ed5c51d2cd601b41abc0fe76218adb4c8d8921c5a7ca5d2ddabd8afe6b064cf",
          "blockNumber": "0x13ec95c",
          "transactionHash": "0xc3900ba4bbde620b0c0b0526fa50e7d9231bb77dfe9377329659915c6ff910f1",
          "transactionIndex": "0x1d",
          "logIndex": "0x5c",
          "removed": false
        },
        {
          "address": "0x721b03df571afd7ce5702176cf5979d1d863b815",
          "topics": [
            "0xddf252ad1be2c89b69c2b068fc378daa952ba7f163c4a11628f55a4df523b3ef",
            "0x0000000000000000000000000000000000000000000000000000000000000000",
            "0x00000000000000000000000012bf0bd36a5d5bda51a78191ec41ba51b60b59e8",
            "0x000000000000000000000000000000000000000000000000000000000000000b"
          ],
          "data": "0x",
          "blockHash": "0x7ed5c51d2cd601b41abc0fe76218adb4c8d8921c5a7ca5d2ddabd8afe6b064cf",
          "blockNumber": "0x13ec95c",
          "transactionHash": "0xc3900ba4bbde620b0c0b0526fa50e7d9231bb77dfe9377329659915c6ff910f1",
          "transactionIndex": "0x1d",
          "logIndex": "0x5d",
          "removed": false
        },
        {
          "address": "0x721b03df571afd7ce5702176cf5979d1d863b815",
          "topics": [
            "0xf8e1a15aba9398e019f0b49df1a4fde98ee17ae345cb5f6b5e2c27f5033e8ce7"
          ],
          "data": "0x000000000000000000000000000000000000000000000000000000000000000b",
          "blockHash": "0x7ed5c51d2cd601b41abc0fe76218adb4c8d8921c5a7ca5d2ddabd8afe6b064cf",
          "blockNumber": "0x13ec95c",
          "transactionHash": "0xc3900ba4bbde620b0c0b0526fa50e7d9231bb77dfe9377329659915c6ff910f1",
          "transactionIndex": "0x1d",
          "logIndex": "0x5e",
          "removed": false
        },
        {
          "address": "0x721b03df571afd7ce5702176cf5979d1d863b815",
          "topics": [
            "0x9f4f924edcbd42fe3de2825e2be11564b45b4ad0cc61e4b60c08880c38ab8f57",
            "0xbc4f6b576ddcaf721f4a412e4efc77cc4117a04eb7e31c8e41de6246b44c0f2e",
            "0x000000000000000000000000000000000000000000000000000000000000000b"
          ],
          "data": "0x",
          "blockHash": "0x7ed5c51d2cd601b41abc0fe76218adb4c8d8921c5a7ca5d2ddabd8afe6b064cf",
          "blockNumber": "0x13ec95c",
          "transactionHash": "0xc3900ba4bbde620b0c0b0526fa50e7d9231bb77dfe9377329659915c6ff910f1",
          "transactionIndex": "0x1d",
          "logIndex": "0x5f",
          "removed": false
        },
        {
          "address": "0x721b03df571afd7ce5702176cf5979d1d863b815",
          "topics": [
            "0xddf252ad1be2c89b69c2b068fc378daa952ba7f163c4a11628f55a4df523b3ef",
            "0x0000000000000000000000000000000000000000000000000000000000000000",
            "0x00000000000000000000000012bf0bd36a5d5bda51a78191ec41ba51b60b59e8",
            "0x000000000000000000000000000000000000000000000000000000000000000c"
          ],
          "data": "0x",
          "blockHash": "0x7ed5c51d2cd601b41abc0fe76218adb4c8d8921c5a7ca5d2ddabd8afe6b064cf",
          "blockNumber": "0x13ec95c",
          "transactionHash": "0xc3900ba4bbde620b0c0b0526fa50e7d9231bb77dfe9377329659915c6ff910f1",
          "transactionIndex": "0x1d",
          "logIndex": "0x60",
          "removed": false
        },
        {
          "address": "0x721b03df571afd7ce5702176cf5979d1d863b815",
          "topics": [
            "0xf8e1a15aba9398e019f0b49df1a4fde98ee17ae345cb5f6b5e2c27f5033e8ce7"
          ],
          "data": "0x000000000000000000000000000000000000000000000000000000000000000c",
          "blockHash": "0x7ed5c51d2cd601b41abc0fe76218adb4c8d8921c5a7ca5d2ddabd8afe6b064cf",
          "blockNumber": "0x13ec95c",
          "transactionHash": "0xc3900ba4bbde620b0c0b0526fa50e7d9231bb77dfe9377329659915c6ff910f1",
          "transactionIndex": "0x1d",
          "logIndex": "0x61",
          "removed": false
        },
        {
          "address": "0x721b03df571afd7ce5702176cf5979d1d863b815",
          "topics": [
            "0x9f4f924edcbd42fe3de2825e2be11564b45b4ad0cc61e4b60c08880c38ab8f57",
            "0x5e98422f837ca71c3ec648e401ad27a658b19b354f881cfe46eccdbcd417ea4a",
            "0x000000000000000000000000000000000000000000000000000000000000000c"
          ],
          "data": "0x",
          "blockHash": "0x7ed5c51d2cd601b41abc0fe76218adb4c8d8921c5a7ca5d2ddabd8afe6b064cf",
          "blockNumber": "0x13ec95c",
          "transactionHash": "0xc3900ba4bbde620b0c0b0526fa50e7d9231bb77dfe9377329659915c6ff910f1",
          "transactionIndex": "0x1d",
          "logIndex": "0x62",
          "removed": false
        },
        {
          "address": "0x721b03df571afd7ce5702176cf5979d1d863b815",
          "topics": [
            "0xddf252ad1be2c89b69c2b068fc378daa952ba7f163c4a11628f55a4df523b3ef",
            "0x0000000000000000000000000000000000000000000000000000000000000000",
            "0x00000000000000000000000012bf0bd36a5d5bda51a78191ec41ba51b60b59e8",
            "0x000000000000000000000000000000000000000000000000000000000000000d"
          ],
          "data": "0x",
          "blockHash": "0x7ed5c51d2cd601b41abc0fe76218adb4c8d8921c5a7ca5d2ddabd8afe6b064cf",
          "blockNumber": "0x13ec95c",
          "transactionHash": "0xc3900ba4bbde620b0c0b0526fa50e7d9231bb77dfe9377329659915c6ff910f1",
          "transactionIndex": "0x1d",
          "logIndex": "0x63",
          "removed": false
        },
        {
          "address": "0x721b03df571afd7ce5702176cf5979d1d863b815",
          "topics": [
            "0xf8e1a15aba9398e019f0b49df1a4fde98ee17ae345cb5f6b5e2c27f5033e8ce7"
          ],
          "data": "0x000000000000000000000000000000000000000000000000000000000000000d",
          "blockHash": "0x7ed5c51d2cd601b41abc0fe76218adb4c8d8921c5a7ca5d2ddabd8afe6b064cf",
          "blockNumber": "0x13ec95c",
          "transactionHash": "0xc3900ba4bbde620b0c0b0526fa50e7d9231bb77dfe9377329659915c6ff910f1",
          "transactionIndex": "0x1d",
          "logIndex": "0x64",
          "removed": false
        },
        {
          "address": "0x721b03df571afd7ce5702176cf5979d1d863b815",
          "topics": [
            "0x9f4f924edcbd42fe3de2825e2be11564b45b4ad0cc61e4b60c08880c38ab8f57",
            "0x1590c3dc995a2cdd0ed3cc3d2b0852cb7f1f233728228eab7e313b32693eca40",
            "0x000000000000000000000000000000000000000000000000000000000000000d"
          ],
          "data": "0x",
          "blockHash": "0x7ed5c51d2cd601b41abc0fe76218adb4c8d8921c5a7ca5d2ddabd8afe6b064cf",
          "blockNumber": "0x13ec95c",
          "transactionHash": "0xc3900ba4bbde620b0c0b0526fa50e7d9231bb77dfe9377329659915c6ff910f1",
          "transactionIndex": "0x1d",
          "logIndex": "0x65",
          "removed": false
        },
        {
          "address": "0x721b03df571afd7ce5702176cf5979d1d863b815",
          "topics": [
            "0xddf252ad1be2c89b69c2b068fc378daa952ba7f163c4a11628f55a4df523b3ef",
            "0x0000000000000000000000000000000000000000000000000000000000000000",
            "0x00000000000000000000000012bf0bd36a5d5bda51a78191ec41ba51b60b59e8",
            "0x000000000000000000000000000000000000000000000000000000000000000e"
          ],
          "data": "0x",
          "blockHash": "0x7ed5c51d2cd601b41abc0fe76218adb4c8d8921c5a7ca5d2ddabd8afe6b064cf",
          "blockNumber": "0x13ec95c",
          "transactionHash": "0xc3900ba4bbde620b0c0b0526fa50e7d9231bb77dfe9377329659915c6ff910f1",
          "transactionIndex": "0x1d",
          "logIndex": "0x66",
          "removed": false
        },
        {
          "address": "0x721b03df571afd7ce5702176cf5979d1d863b815",
          "topics": [
            "0xf8e1a15aba9398e019f0b49df1a4fde98ee17ae345cb5f6b5e2c27f5033e8ce7"
          ],
          "data": "0x000000000000000000000000000000000000000000000000000000000000000e",
          "blockHash": "0x7ed5c51d2cd601b41abc0fe76218adb4c8d8921c5a7ca5d2ddabd8afe6b064cf",
          "blockNumber": "0x13ec95c",
          "transactionHash": "0xc3900ba4bbde620b0c0b0526fa50e7d9231bb77dfe9377329659915c6ff910f1",
          "transactionIndex": "0x1d",
          "logIndex": "0x67",
          "removed": false
        },
        {
          "address": "0x721b03df571afd7ce5702176cf5979d1d863b815",
          "topics": [
            "0x9f4f924edcbd42fe3de2825e2be11564b45b4ad0cc61e4b60c08880c38ab8f57",
            "0x2bddce760e5ff300e0d187a46643ed41a8082dab5ac84e68e6c69bee793362ca",
            "0x000000000000000000000000000000000000000000000000000000000000000e"
          ],
          "data": "0x",
          "blockHash": "0x7ed5c51d2cd601b41abc0fe76218adb4c8d8921c5a7ca5d2ddabd8afe6b064cf",
          "blockNumber": "0x13ec95c",
          "transactionHash": "0xc3900ba4bbde620b0c0b0526fa50e7d9231bb77dfe9377329659915c6ff910f1",
          "transactionIndex": "0x1d",
          "logIndex": "0x68",
          "removed": false
        }
      ],
      "logsBloom": "0x04000008000002002040004000004000000002000000000000000000000000001000000000200200000000081000000000011000060484000020800000250000002030000000000800000008000000000002000000040000008800000000000008000004220000000000000010000a00000000000000000000040010000000009080000400001000010008000000085008001800008400000000000000000000180000010000000000000100000000002000000002800020002000080000408040000002000000100008400011000000802000008000000000000100000060220000000000010404280000000000000000002000008000040000002020840800",
      "type": "0x2",
      "transactionHash": "0xc3900ba4bbde620b0c0b0526fa50e7d9231bb77dfe9377329659915c6ff910f1",
      "transactionIndex": "0x1d",
      "blockHash": "0x7ed5c51d2cd601b41abc0fe76218adb4c8d8921c5a7ca5d2ddabd8afe6b064cf",
      "blockNumber": "0x13ec95c",
      "gasUsed": "0x272c1d",
      "effectiveGasPrice": "0x2c7a4",
      "blobGasUsed": "0x0",
      "from": "0x11296402a8f2373fb7fdb57296c1391856695eb3",
      "to": "0x721b03df571afd7ce5702176cf5979d1d863b815",
      "contractAddress": null,
      "l1BaseFeeScalar": "0x44d",
      "l1BlobBaseFee": "0x198815",
      "l1BlobBaseFeeScalar": "0xa118b",
      "l1Fee": "0x13d4748922",
      "l1GasPrice": "0x2534c2b02",
      "l1GasUsed": "0x1e11"
    },
    {
      "status": "0x1",
      "cumulativeGasUsed": "0xc2bca1",
      "logs": [
        {
          "address": "0xd985763b49d1c4ec75acd6179f2fa377d4a709fc",
          "topics": [
            "0xddf252ad1be2c89b69c2b068fc378daa952ba7f163c4a11628f55a4df523b3ef",
            "0x0000000000000000000000000000000000000000000000000000000000000000",
            "0x00000000000000000000000012bf0bd36a5d5bda51a78191ec41ba51b60b59e8",
            "0x0000000000000000000000000000000000000000000000000000000000000001"
          ],
          "data": "0x",
          "blockHash": "0x7ed5c51d2cd601b41abc0fe76218adb4c8d8921c5a7ca5d2ddabd8afe6b064cf",
          "blockNumber": "0x13ec95c",
          "transactionHash": "0x8d43849d32f75790f1f2567af0d2c6382e59821f485736cbb4b20d6e470c576f",
          "transactionIndex": "0x1e",
          "logIndex": "0x69",
          "removed": false
        },
        {
          "address": "0xd985763b49d1c4ec75acd6179f2fa377d4a709fc",
          "topics": [
            "0xf8e1a15aba9398e019f0b49df1a4fde98ee17ae345cb5f6b5e2c27f5033e8ce7"
          ],
          "data": "0x0000000000000000000000000000000000000000000000000000000000000001",
          "blockHash": "0x7ed5c51d2cd601b41abc0fe76218adb4c8d8921c5a7ca5d2ddabd8afe6b064cf",
          "blockNumber": "0x13ec95c",
          "transactionHash": "0x8d43849d32f75790f1f2567af0d2c6382e59821f485736cbb4b20d6e470c576f",
          "transactionIndex": "0x1e",
          "logIndex": "0x6a",
          "removed": false
        },
        {
          "address": "0xd985763b49d1c4ec75acd6179f2fa377d4a709fc",
          "topics": [
            "0x9f4f924edcbd42fe3de2825e2be11564b45b4ad0cc61e4b60c08880c38ab8f57",
            "0x82af40283257c1811e1251ee44746b4042f6dba7bccfc8fce10bc88c777a93dd",
            "0x0000000000000000000000000000000000000000000000000000000000000001"
          ],
          "data": "0x",
          "blockHash": "0x7ed5c51d2cd601b41abc0fe76218adb4c8d8921c5a7ca5d2ddabd8afe6b064cf",
          "blockNumber": "0x13ec95c",
          "transactionHash": "0x8d43849d32f75790f1f2567af0d2c6382e59821f485736cbb4b20d6e470c576f",
          "transactionIndex": "0x1e",
          "logIndex": "0x6b",
          "removed": false
        },
        {
          "address": "0xd985763b49d1c4ec75acd6179f2fa377d4a709fc",
          "topics": [
            "0xddf252ad1be2c89b69c2b068fc378daa952ba7f163c4a11628f55a4df523b3ef",
            "0x0000000000000000000000000000000000000000000000000000000000000000",
            "0x00000000000000000000000012bf0bd36a5d5bda51a78191ec41ba51b60b59e8",
            "0x0000000000000000000000000000000000000000000000000000000000000002"
          ],
          "data": "0x",
          "blockHash": "0x7ed5c51d2cd601b41abc0fe76218adb4c8d8921c5a7ca5d2ddabd8afe6b064cf",
          "blockNumber": "0x13ec95c",
          "transactionHash": "0x8d43849d32f75790f1f2567af0d2c6382e59821f485736cbb4b20d6e470c576f",
          "transactionIndex": "0x1e",
          "logIndex": "0x6c",
          "removed": false
        },
        {
          "address": "0xd985763b49d1c4ec75acd6179f2fa377d4a709fc",
          "topics": [
            "0xf8e1a15aba9398e019f0b49df1a4fde98ee17ae345cb5f6b5e2c27f5033e8ce7"
          ],
          "data": "0x0000000000000000000000000000000000000000000000000000000000000002",
          "blockHash": "0x7ed5c51d2cd601b41abc0fe76218adb4c8d8921c5a7ca5d2ddabd8afe6b064cf",
          "blockNumber": "0x13ec95c",
          "transactionHash": "0x8d43849d32f75790f1f2567af0d2c6382e59821f485736cbb4b20d6e470c576f",
          "transactionIndex": "0x1e",
          "logIndex": "0x6d",
          "removed": false
        },
        {
          "address": "0xd985763b49d1c4ec75acd6179f2fa377d4a709fc",
          "topics": [
            "0x9f4f924edcbd42fe3de2825e2be11564b45b4ad0cc61e4b60c08880c38ab8f57",
            "0xd383c2c1e7b1fdfc4f40ab9ed16a64742551d97a44d9558e5ba264dbc24c2f49",
            "0x0000000000000000000000000000000000000000000000000000000000000002"
          ],
          "data": "0x",
          "blockHash": "0x7ed5c51d2cd601b41abc0fe76218adb4c8d8921c5a7ca5d2ddabd8afe6b064cf",
          "blockNumber": "0x13ec95c",
          "transactionHash": "0x8d43849d32f75790f1f2567af0d2c6382e59821f485736cbb4b20d6e470c576f",
          "transactionIndex": "0x1e",
          "logIndex": "0x6e",
          "removed": false
        },
        {
          "address": "0xd985763b49d1c4ec75acd6179f2fa377d4a709fc",
          "topics": [
            "0xddf252ad1be2c89b69c2b068fc378daa952ba7f163c4a11628f55a4df523b3ef",
            "0x0000000000000000000000000000000000000000000000000000000000000000",
            "0x00000000000000000000000012bf0bd36a5d5bda51a78191ec41ba51b60b59e8",
            "0x0000000000000000000000000000000000000000000000000000000000000003"
          ],
          "data": "0x",
          "blockHash": "0x7ed5c51d2cd601b41abc0fe76218adb4c8d8921c5a7ca5d2ddabd8afe6b064cf",
          "blockNumber": "0x13ec95c",
          "transactionHash": "0x8d43849d32f75790f1f2567af0d2c6382e59821f485736cbb4b20d6e470c576f",
          "transactionIndex": "0x1e",
          "logIndex": "0x6f",
          "removed": false
        },
        {
          "address": "0xd985763b49d1c4ec75acd6179f2fa377d4a709fc",
          "topics": [
            "0xf8e1a15aba9398e019f0b49df1a4fde98ee17ae345cb5f6b5e2c27f5033e8ce7"
          ],
          "data": "0x0000000000000000000000000000000000000000000000000000000000000003",
          "blockHash": "0x7ed5c51d2cd601b41abc0fe76218adb4c8d8921c5a7ca5d2ddabd8afe6b064cf",
          "blockNumber": "0x13ec95c",
          "transactionHash": "0x8d43849d32f75790f1f2567af0d2c6382e59821f485736cbb4b20d6e470c576f",
          "transactionIndex": "0x1e",
          "logIndex": "0x70",
          "removed": false
        },
        {
          "address": "0xd985763b49d1c4ec75acd6179f2fa377d4a709fc",
          "topics": [
            "0x9f4f924edcbd42fe3de2825e2be11564b45b4ad0cc61e4b60c08880c38ab8f57",
            "0xaa02b9fb56464aebb72e3affc8c0cf0098f21b71a16edbe5dfdba585ca235a1f",
            "0x0000000000000000000000000000000000000000000000000000000000000003"
          ],
          "data": "0x",
          "blockHash": "0x7ed5c51d2cd601b41abc0fe76218adb4c8d8921c5a7ca5d2ddabd8afe6b064cf",
          "blockNumber": "0x13ec95c",
          "transactionHash": "0x8d43849d32f75790f1f2567af0d2c6382e59821f485736cbb4b20d6e470c576f",
          "transactionIndex": "0x1e",
          "logIndex": "0x71",
          "removed": false
        },
        {
          "address": "0xd985763b49d1c4ec75acd6179f2fa377d4a709fc",
          "topics": [
            "0xddf252ad1be2c89b69c2b068fc378daa952ba7f163c4a11628f55a4df523b3ef",
            "0x0000000000000000000000000000000000000000000000000000000000000000",
            "0x00000000000000000000000012bf0bd36a5d5bda51a78191ec41ba51b60b59e8",
            "0x0000000000000000000000000000000000000000000000000000000000000004"
          ],
          "data": "0x",
          "blockHash": "0x7ed5c51d2cd601b41abc0fe76218adb4c8d8921c5a7ca5d2ddabd8afe6b064cf",
          "blockNumber": "0x13ec95c",
          "transactionHash": "0x8d43849d32f75790f1f2567af0d2c6382e59821f485736cbb4b20d6e470c576f",
          "transactionIndex": "0x1e",
          "logIndex": "0x72",
          "removed": false
        },
        {
          "address": "0xd985763b49d1c4ec75acd6179f2fa377d4a709fc",
          "topics": [
            "0xf8e1a15aba9398e019f0b49df1a4fde98ee17ae345cb5f6b5e2c27f5033e8ce7"
          ],
          "data": "0x0000000000000000000000000000000000000000000000000000000000000004",
          "blockHash": "0x7ed5c51d2cd601b41abc0fe76218adb4c8d8921c5a7ca5d2ddabd8afe6b064cf",
          "blockNumber": "0x13ec95c",
          "transactionHash": "0x8d43849d32f75790f1f2567af0d2c6382e59821f485736cbb4b20d6e470c576f",
          "transactionIndex": "0x1e",
          "logIndex": "0x73",
          "removed": false
        },
        {
          "address": "0xd985763b49d1c4ec75acd6179f2fa377d4a709fc",
          "topics": [
            "0x9f4f924edcbd42fe3de2825e2be11564b45b4ad0cc61e4b60c08880c38ab8f57",
            "0xe6a9229d54ef21cdf3883710e0471b7172b1aec0d900c450047286f9e71a797e",
            "0x0000000000000000000000000000000000000000000000000000000000000004"
          ],
          "data": "0x",
          "blockHash": "0x7ed5c51d2cd601b41abc0fe76218adb4c8d8921c5a7ca5d2ddabd8afe6b064cf",
          "blockNumber": "0x13ec95c",
          "transactionHash": "0x8d43849d32f75790f1f2567af0d2c6382e59821f485736cbb4b20d6e470c576f",
          "transactionIndex": "0x1e",
          "logIndex": "0x74",
          "removed": false
        },
        {
          "address": "0xd985763b49d1c4ec75acd6179f2fa377d4a709fc",
          "topics": [
            "0xddf252ad1be2c89b69c2b068fc378daa952ba7f163c4a11628f55a4df523b3ef",
            "0x0000000000000000000000000000000000000000000000000000000000000000",
            "0x00000000000000000000000012bf0bd36a5d5bda51a78191ec41ba51b60b59e8",
            "0x0000000000000000000000000000000000000000000000000000000000000005"
          ],
          "data": "0x",
          "blockHash": "0x7ed5c51d2cd601b41abc0fe76218adb4c8d8921c5a7ca5d2ddabd8afe6b064cf",
          "blockNumber": "0x13ec95c",
          "transactionHash": "0x8d43849d32f75790f1f2567af0d2c6382e59821f485736cbb4b20d6e470c576f",
          "transactionIndex": "0x1e",
          "logIndex": "0x75",
          "removed": false
        },
        {
          "address": "0xd985763b49d1c4ec75acd6179f2fa377d4a709fc",
          "topics": [
            "0xf8e1a15aba9398e019f0b49df1a4fde98ee17ae345cb5f6b5e2c27f5033e8ce7"
          ],
          "data": "0x0000000000000000000000000000000000000000000000000000000000000005",
          "blockHash": "0x7ed5c51d2cd601b41abc0fe76218adb4c8d8921c5a7ca5d2ddabd8afe6b064cf",
          "blockNumber": "0x13ec95c",
          "transactionHash": "0x8d43849d32f75790f1f2567af0d2c6382e59821f485736cbb4b20d6e470c576f",
          "transactionIndex": "0x1e",
          "logIndex": "0x76",
          "removed": false
        },
        {
          "address": "0xd985763b49d1c4ec75acd6179f2fa377d4a709fc",
          "topics": [
            "0x9f4f924edcbd42fe3de2825e2be11564b45b4ad0cc61e4b60c08880c38ab8f57",
            "0x5e43e4a0b006edffffa7aa271003406af5b88813883581e7c6ce646df43fae1c",
            "0x0000000000000000000000000000000000000000000000000000000000000005"
          ],
          "data": "0x",
          "blockHash": "0x7ed5c51d2cd601b41abc0fe76218adb4c8d8921c5a7ca5d2ddabd8afe6b064cf",
          "blockNumber": "0x13ec95c",
          "transactionHash": "0x8d43849d32f75790f1f2567af0d2c6382e59821f485736cbb4b20d6e470c576f",
          "transactionIndex": "0x1e",
          "logIndex": "0x77",
          "removed": false
        },
        {
          "address": "0xd985763b49d1c4ec75acd6179f2fa377d4a709fc",
          "topics": [
            "0xddf252ad1be2c89b69c2b068fc378daa952ba7f163c4a11628f55a4df523b3ef",
            "0x0000000000000000000000000000000000000000000000000000000000000000",
            "0x00000000000000000000000012bf0bd36a5d5bda51a78191ec41ba51b60b59e8",
            "0x0000000000000000000000000000000000000000000000000000000000000006"
          ],
          "data": "0x",
          "blockHash": "0x7ed5c51d2cd601b41abc0fe76218adb4c8d8921c5a7ca5d2ddabd8afe6b064cf",
          "blockNumber": "0x13ec95c",
          "transactionHash": "0x8d43849d32f75790f1f2567af0d2c6382e59821f485736cbb4b20d6e470c576f",
          "transactionIndex": "0x1e",
          "logIndex": "0x78",
          "removed": false
        },
        {
          "address": "0xd985763b49d1c4ec75acd6179f2fa377d4a709fc",
          "topics": [
            "0xf8e1a15aba9398e019f0b49df1a4fde98ee17ae345cb5f6b5e2c27f5033e8ce7"
          ],
          "data": "0x0000000000000000000000000000000000000000000000000000000000000006",
          "blockHash": "0x7ed5c51d2cd601b41abc0fe76218adb4c8d8921c5a7ca5d2ddabd8afe6b064cf",
          "blockNumber": "0x13ec95c",
          "transactionHash": "0x8d43849d32f75790f1f2567af0d2c6382e59821f485736cbb4b20d6e470c576f",
          "transactionIndex": "0x1e",
          "logIndex": "0x79",
          "removed": false
        },
        {
          "address": "0xd985763b49d1c4ec75acd6179f2fa377d4a709fc",
          "topics": [
            "0x9f4f924edcbd42fe3de2825e2be11564b45b4ad0cc61e4b60c08880c38ab8f57",
            "0x3f238782e2d1fe530275be7a0117362f72060a5203357411a0e9e5370f64e5c0",
            "0x0000000000000000000000000000000000000000000000000000000000000006"
          ],
          "data": "0x",
          "blockHash": "0x7ed5c51d2cd601b41abc0fe76218adb4c8d8921c5a7ca5d2ddabd8afe6b064cf",
          "blockNumber": "0x13ec95c",
          "transactionHash": "0x8d43849d32f75790f1f2567af0d2c6382e59821f485736cbb4b20d6e470c576f",
          "transactionIndex": "0x1e",
          "logIndex": "0x7a",
          "removed": false
        },
        {
          "address": "0xd985763b49d1c4ec75acd6179f2fa377d4a709fc",
          "topics": [
            "0xddf252ad1be2c89b69c2b068fc378daa952ba7f163c4a11628f55a4df523b3ef",
            "0x0000000000000000000000000000000000000000000000000000000000000000",
            "0x00000000000000000000000012bf0bd36a5d5bda51a78191ec41ba51b60b59e8",
            "0x0000000000000000000000000000000000000000000000000000000000000007"
          ],
          "data": "0x",
          "blockHash": "0x7ed5c51d2cd601b41abc0fe76218adb4c8d8921c5a7ca5d2ddabd8afe6b064cf",
          "blockNumber": "0x13ec95c",
          "transactionHash": "0x8d43849d32f75790f1f2567af0d2c6382e59821f485736cbb4b20d6e470c576f",
          "transactionIndex": "0x1e",
          "logIndex": "0x7b",
          "removed": false
        },
        {
          "address": "0xd985763b49d1c4ec75acd6179f2fa377d4a709fc",
          "topics": [
            "0xf8e1a15aba9398e019f0b49df1a4fde98ee17ae345cb5f6b5e2c27f5033e8ce7"
          ],
          "data": "0x0000000000000000000000000000000000000000000000000000000000000007",
          "blockHash": "0x7ed5c51d2cd601b41abc0fe76218adb4c8d8921c5a7ca5d2ddabd8afe6b064cf",
          "blockNumber": "0x13ec95c",
          "transactionHash": "0x8d43849d32f75790f1f2567af0d2c6382e59821f485736cbb4b20d6e470c576f",
          "transactionIndex": "0x1e",
          "logIndex": "0x7c",
          "removed": false
        },
        {
          "address": "0xd985763b49d1c4ec75acd6179f2fa377d4a709fc",
          "topics": [
            "0x9f4f924edcbd42fe3de2825e2be11564b45b4ad0cc61e4b60c08880c38ab8f57",
            "0x1c76043499a0f085c41e899c07542bb29e00ca847f57f6fb2cfe8c0ece1fb75f",
            "0x0000000000000000000000000000000000000000000000000000000000000007"
          ],
          "data": "0x",
          "blockHash": "0x7ed5c51d2cd601b41abc0fe76218adb4c8d8921c5a7ca5d2ddabd8afe6b064cf",
          "blockNumber": "0x13ec95c",
          "transactionHash": "0x8d43849d32f75790f1f2567af0d2c6382e59821f485736cbb4b20d6e470c576f",
          "transactionIndex": "0x1e",
          "logIndex": "0x7d",
          "removed": false
        },
        {
          "address": "0xd985763b49d1c4ec75acd6179f2fa377d4a709fc",
          "topics": [
            "0xddf252ad1be2c89b69c2b068fc378daa952ba7f163c4a11628f55a4df523b3ef",
            "0x0000000000000000000000000000000000000000000000000000000000000000",
            "0x00000000000000000000000012bf0bd36a5d5bda51a78191ec41ba51b60b59e8",
            "0x0000000000000000000000000000000000000000000000000000000000000008"
          ],
          "data": "0x",
          "blockHash": "0x7ed5c51d2cd601b41abc0fe76218adb4c8d8921c5a7ca5d2ddabd8afe6b064cf",
          "blockNumber": "0x13ec95c",
          "transactionHash": "0x8d43849d32f75790f1f2567af0d2c6382e59821f485736cbb4b20d6e470c576f",
          "transactionIndex": "0x1e",
          "logIndex": "0x7e",
          "removed": false
        },
        {
          "address": "0xd985763b49d1c4ec75acd6179f2fa377d4a709fc",
          "topics": [
            "0xf8e1a15aba9398e019f0b49df1a4fde98ee17ae345cb5f6b5e2c27f5033e8ce7"
          ],
          "data": "0x0000000000000000000000000000000000000000000000000000000000000008",
          "blockHash": "0x7ed5c51d2cd601b41abc0fe76218adb4c8d8921c5a7ca5d2ddabd8afe6b064cf",
          "blockNumber": "0x13ec95c",
          "transactionHash": "0x8d43849d32f75790f1f2567af0d2c6382e59821f485736cbb4b20d6e470c576f",
          "transactionIndex": "0x1e",
          "logIndex": "0x7f",
          "removed": false
        },
        {
          "address": "0xd985763b49d1c4ec75acd6179f2fa377d4a709fc",
          "topics": [
            "0x9f4f924edcbd42fe3de2825e2be11564b45b4ad0cc61e4b60c08880c38ab8f57",
            "0x8117940139ecd759bcd1d46dd32450cdca74401a9786a549378d9a358402c940",
            "0x0000000000000000000000000000000000000000000000000000000000000008"
          ],
          "data": "0x",
          "blockHash": "0x7ed5c51d2cd601b41abc0fe76218adb4c8d8921c5a7ca5d2ddabd8afe6b064cf",
          "blockNumber": "0x13ec95c",
          "transactionHash": "0x8d43849d32f75790f1f2567af0d2c6382e59821f485736cbb4b20d6e470c576f",
          "transactionIndex": "0x1e",
          "logIndex": "0x80",
          "removed": false
        },
        {
          "address": "0xd985763b49d1c4ec75acd6179f2fa377d4a709fc",
          "topics": [
            "0xddf252ad1be2c89b69c2b068fc378daa952ba7f163c4a11628f55a4df523b3ef",
            "0x0000000000000000000000000000000000000000000000000000000000000000",
            "0x00000000000000000000000012bf0bd36a5d5bda51a78191ec41ba51b60b59e8",
            "0x0000000000000000000000000000000000000000000000000000000000000009"
          ],
          "data": "0x",
          "blockHash": "0x7ed5c51d2cd601b41abc0fe76218adb4c8d8921c5a7ca5d2ddabd8afe6b064cf",
          "blockNumber": "0x13ec95c",
          "transactionHash": "0x8d43849d32f75790f1f2567af0d2c6382e59821f485736cbb4b20d6e470c576f",
          "transactionIndex": "0x1e",
          "logIndex": "0x81",
          "removed": false
        },
        {
          "address": "0xd985763b49d1c4ec75acd6179f2fa377d4a709fc",
          "topics": [
            "0xf8e1a15aba9398e019f0b49df1a4fde98ee17ae345cb5f6b5e2c27f5033e8ce7"
          ],
          "data": "0x0000000000000000000000000000000000000000000000000000000000000009",
          "blockHash": "0x7ed5c51d2cd601b41abc0fe76218adb4c8d8921c5a7ca5d2ddabd8afe6b064cf",
          "blockNumber": "0x13ec95c",
          "transactionHash": "0x8d43849d32f75790f1f2567af0d2c6382e59821f485736cbb4b20d6e470c576f",
          "transactionIndex": "0x1e",
          "logIndex": "0x82",
          "removed": false
        },
        {
          "address": "0xd985763b49d1c4ec75acd6179f2fa377d4a709fc",
          "topics": [
            "0x9f4f924edcbd42fe3de2825e2be11564b45b4ad0cc61e4b60c08880c38ab8f57",
            "0x06180bc8597f6bddf9face146778f27ed6b42f0e2ad0af65f3ec772479f0f274",
            "0x0000000000000000000000000000000000000000000000000000000000000009"
          ],
          "data": "0x",
          "blockHash": "0x7ed5c51d2cd601b41abc0fe76218adb4c8d8921c5a7ca5d2ddabd8afe6b064cf",
          "blockNumber": "0x13ec95c",
          "transactionHash": "0x8d43849d32f75790f1f2567af0d2c6382e59821f485736cbb4b20d6e470c576f",
          "transactionIndex": "0x1e",
          "logIndex": "0x83",
          "removed": false
        },
        {
          "address": "0xd985763b49d1c4ec75acd6179f2fa377d4a709fc",
          "topics": [
            "0xddf252ad1be2c89b69c2b068fc378daa952ba7f163c4a11628f55a4df523b3ef",
            "0x0000000000000000000000000000000000000000000000000000000000000000",
            "0x00000000000000000000000012bf0bd36a5d5bda51a78191ec41ba51b60b59e8",
            "0x000000000000000000000000000000000000000000000000000000000000000a"
          ],
          "data": "0x",
          "blockHash": "0x7ed5c51d2cd601b41abc0fe76218adb4c8d8921c5a7ca5d2ddabd8afe6b064cf",
          "blockNumber": "0x13ec95c",
          "transactionHash": "0x8d43849d32f75790f1f2567af0d2c6382e59821f485736cbb4b20d6e470c576f",
          "transactionIndex": "0x1e",
          "logIndex": "0x84",
          "removed": false
        },
        {
          "address": "0xd985763b49d1c4ec75acd6179f2fa377d4a709fc",
          "topics": [
            "0xf8e1a15aba9398e019f0b49df1a4fde98ee17ae345cb5f6b5e2c27f5033e8ce7"
          ],
          "data": "0x000000000000000000000000000000000000000000000000000000000000000a",
          "blockHash": "0x7ed5c51d2cd601b41abc0fe76218adb4c8d8921c5a7ca5d2ddabd8afe6b064cf",
          "blockNumber": "0x13ec95c",
          "transactionHash": "0x8d43849d32f75790f1f2567af0d2c6382e59821f485736cbb4b20d6e470c576f",
          "transactionIndex": "0x1e",
          "logIndex": "0x85",
          "removed": false
        },
        {
          "address": "0xd985763b49d1c4ec75acd6179f2fa377d4a709fc",
          "topics": [
            "0x9f4f924edcbd42fe3de2825e2be11564b45b4ad0cc61e4b60c08880c38ab8f57",
            "0x54bb61685cae8dcb6c82d9ac14bcea30133ef56b778691be9cb0cc562fe4298e",
            "0x000000000000000000000000000000000000000000000000000000000000000a"
          ],
          "data": "0x",
          "blockHash": "0x7ed5c51d2cd601b41abc0fe76218adb4c8d8921c5a7ca5d2ddabd8afe6b064cf",
          "blockNumber": "0x13ec95c",
          "transactionHash": "0x8d43849d32f75790f1f2567af0d2c6382e59821f485736cbb4b20d6e470c576f",
          "transactionIndex": "0x1e",
          "logIndex": "0x86",
          "removed": false
        },
        {
          "address": "0xd985763b49d1c4ec75acd6179f2fa377d4a709fc",
          "topics": [
            "0xddf252ad1be2c89b69c2b068fc378daa952ba7f163c4a11628f55a4df523b3ef",
            "0x0000000000000000000000000000000000000000000000000000000000000000",
            "0x00000000000000000000000012bf0bd36a5d5bda51a78191ec41ba51b60b59e8",
            "0x000000000000000000000000000000000000000000000000000000000000000b"
          ],
          "data": "0x",
          "blockHash": "0x7ed5c51d2cd601b41abc0fe76218adb4c8d8921c5a7ca5d2ddabd8afe6b064cf",
          "blockNumber": "0x13ec95c",
          "transactionHash": "0x8d43849d32f75790f1f2567af0d2c6382e59821f485736cbb4b20d6e470c576f",
          "transactionIndex": "0x1e",
          "logIndex": "0x87",
          "removed": false
        },
        {
          "address": "0xd985763b49d1c4ec75acd6179f2fa377d4a709fc",
          "topics": [
            "0xf8e1a15aba9398e019f0b49df1a4fde98ee17ae345cb5f6b5e2c27f5033e8ce7"
          ],
          "data": "0x000000000000000000000000000000000000000000000000000000000000000b",
          "blockHash": "0x7ed5c51d2cd601b41abc0fe76218adb4c8d8921c5a7ca5d2ddabd8afe6b064cf",
          "blockNumber": "0x13ec95c",
          "transactionHash": "0x8d43849d32f75790f1f2567af0d2c6382e59821f485736cbb4b20d6e470c576f",
          "transactionIndex": "0x1e",
          "logIndex": "0x88",
          "removed": false
        },
        {
          "address": "0xd985763b49d1c4ec75acd6179f2fa377d4a709fc",
          "topics": [
            "0x9f4f924edcbd42fe3de2825e2be11564b45b4ad0cc61e4b60c08880c38ab8f57",
            "0xa781ed8dcf9065526d7882a9db3854c1061dc955f538eeff122a9f171d2cd8b2",
            "0x000000000000000000000000000000000000000000000000000000000000000b"
          ],
          "data": "0x",
          "blockHash": "0x7ed5c51d2cd601b41abc0fe76218adb4c8d8921c5a7ca5d2ddabd8afe6b064cf",
          "blockNumber": "0x13ec95c",
          "transactionHash": "0x8d43849d32f75790f1f2567af0d2c6382e59821f485736cbb4b20d6e470c576f",
          "transactionIndex": "0x1e",
          "logIndex": "0x89",
          "removed": false
        },
        {
          "address": "0xd985763b49d1c4ec75acd6179f2fa377d4a709fc",
          "topics": [
            "0xddf252ad1be2c89b69c2b068fc378daa952ba7f163c4a11628f55a4df523b3ef",
            "0x0000000000000000000000000000000000000000000000000000000000000000",
            "0x00000000000000000000000012bf0bd36a5d5bda51a78191ec41ba51b60b59e8",
            "0x000000000000000000000000000000000000000000000000000000000000000c"
          ],
          "data": "0x",
          "blockHash": "0x7ed5c51d2cd601b41abc0fe76218adb4c8d8921c5a7ca5d2ddabd8afe6b064cf",
          "blockNumber": "0x13ec95c",
          "transactionHash": "0x8d43849d32f75790f1f2567af0d2c6382e59821f485736cbb4b20d6e470c576f",
          "transactionIndex": "0x1e",
          "logIndex": "0x8a",
          "removed": false
        },
        {
          "address": "0xd985763b49d1c4ec75acd6179f2fa377d4a709fc",
          "topics": [
            "0xf8e1a15aba9398e019f0b49df1a4fde98ee17ae345cb5f6b5e2c27f5033e8ce7"
          ],
          "data": "0x000000000000000000000000000000000000000000000000000000000000000c",
          "blockHash": "0x7ed5c51d2cd601b41abc0fe76218adb4c8d8921c5a7ca5d2ddabd8afe6b064cf",
          "blockNumber": "0x13ec95c",
          "transactionHash": "0x8d43849d32f75790f1f2567af0d2c6382e59821f485736cbb4b20d6e470c576f",
          "transactionIndex": "0x1e",
          "logIndex": "0x8b",
          "removed": false
        },
        {
          "address": "0xd985763b49d1c4ec75acd6179f2fa377d4a709fc",
          "topics": [
            "0x9f4f924edcbd42fe3de2825e2be11564b45b4ad0cc61e4b60c08880c38ab8f57",
            "0xf121d49233a44a600cc06f74f65ec224e3910baa345ad5ae3ed52391f0a5f2fe",
            "0x000000000000000000000000000000000000000000000000000000000000000c"
          ],
          "data": "0x",
          "blockHash": "0x7ed5c51d2cd601b41abc0fe76218adb4c8d8921c5a7ca5d2ddabd8afe6b064cf",
          "blockNumber": "0x13ec95c",
          "transactionHash": "0x8d43849d32f75790f1f2567af0d2c6382e59821f485736cbb4b20d6e470c576f",
          "transactionIndex": "0x1e",
          "logIndex": "0x8c",
          "removed": false
        },
        {
          "address": "0xd985763b49d1c4ec75acd6179f2fa377d4a709fc",
          "topics": [
            "0xddf252ad1be2c89b69c2b068fc378daa952ba7f163c4a11628f55a4df523b3ef",
            "0x0000000000000000000000000000000000000000000000000000000000000000",
            "0x00000000000000000000000012bf0bd36a5d5bda51a78191ec41ba51b60b59e8",
            "0x000000000000000000000000000000000000000000000000000000000000000d"
          ],
          "data": "0x",
          "blockHash": "0x7ed5c51d2cd601b41abc0fe76218adb4c8d8921c5a7ca5d2ddabd8afe6b064cf",
          "blockNumber": "0x13ec95c",
          "transactionHash": "0x8d43849d32f75790f1f2567af0d2c6382e59821f485736cbb4b20d6e470c576f",
          "transactionIndex": "0x1e",
          "logIndex": "0x8d",
          "removed": false
        },
        {
          "address": "0xd985763b49d1c4ec75acd6179f2fa377d4a709fc",
          "topics": [
            "0xf8e1a15aba9398e019f0b49df1a4fde98ee17ae345cb5f6b5e2c27f5033e8ce7"
          ],
          "data": "0x000000000000000000000000000000000000000000000000000000000000000d",
          "blockHash": "0x7ed5c51d2cd601b41abc0fe76218adb4c8d8921c5a7ca5d2ddabd8afe6b064cf",
          "blockNumber": "0x13ec95c",
          "transactionHash": "0x8d43849d32f75790f1f2567af0d2c6382e59821f485736cbb4b20d6e470c576f",
          "transactionIndex": "0x1e",
          "logIndex": "0x8e",
          "removed": false
        },
        {
          "address": "0xd985763b49d1c4ec75acd6179f2fa377d4a709fc",
          "topics": [
            "0x9f4f924edcbd42fe3de2825e2be11564b45b4ad0cc61e4b60c08880c38ab8f57",
            "0x7511c2d4b9a4bfdd6b7d8da7675fe27ba9ec29c4437406d3f5633c945b294d9a",
            "0x000000000000000000000000000000000000000000000000000000000000000d"
          ],
          "data": "0x",
          "blockHash": "0x7ed5c51d2cd601b41abc0fe76218adb4c8d8921c5a7ca5d2ddabd8afe6b064cf",
          "blockNumber": "0x13ec95c",
          "transactionHash": "0x8d43849d32f75790f1f2567af0d2c6382e59821f485736cbb4b20d6e470c576f",
          "transactionIndex": "0x1e",
          "logIndex": "0x8f",
          "removed": false
        },
        {
          "address": "0xd985763b49d1c4ec75acd6179f2fa377d4a709fc",
          "topics": [
            "0xddf252ad1be2c89b69c2b068fc378daa952ba7f163c4a11628f55a4df523b3ef",
            "0x0000000000000000000000000000000000000000000000000000000000000000",
            "0x00000000000000000000000012bf0bd36a5d5bda51a78191ec41ba51b60b59e8",
            "0x000000000000000000000000000000000000000000000000000000000000000e"
          ],
          "data": "0x",
          "blockHash": "0x7ed5c51d2cd601b41abc0fe76218adb4c8d8921c5a7ca5d2ddabd8afe6b064cf",
          "blockNumber": "0x13ec95c",
          "transactionHash": "0x8d43849d32f75790f1f2567af0d2c6382e59821f485736cbb4b20d6e470c576f",
          "transactionIndex": "0x1e",
          "logIndex": "0x90",
          "removed": false
        },
        {
          "address": "0xd985763b49d1c4ec75acd6179f2fa377d4a709fc",
          "topics": [
            "0xf8e1a15aba9398e019f0b49df1a4fde98ee17ae345cb5f6b5e2c27f5033e8ce7"
          ],
          "data": "0x000000000000000000000000000000000000000000000000000000000000000e",
          "blockHash": "0x7ed5c51d2cd601b41abc0fe76218adb4c8d8921c5a7ca5d2ddabd8afe6b064cf",
          "blockNumber": "0x13ec95c",
          "transactionHash": "0x8d43849d32f75790f1f2567af0d2c6382e59821f485736cbb4b20d6e470c576f",
          "transactionIndex": "0x1e",
          "logIndex": "0x91",
          "removed": false
        },
        {
          "address": "0xd985763b49d1c4ec75acd6179f2fa377d4a709fc",
          "topics": [
            "0x9f4f924edcbd42fe3de2825e2be11564b45b4ad0cc61e4b60c08880c38ab8f57",
            "0x77999ef0b8579302b62702162aba2665922d38a2f86bd4f86fc5dd3284b17294",
            "0x000000000000000000000000000000000000000000000000000000000000000e"
          ],
          "data": "0x",
          "blockHash": "0x7ed5c51d2cd601b41abc0fe76218adb4c8d8921c5a7ca5d2ddabd8afe6b064cf",
          "blockNumber": "0x13ec95c",
          "transactionHash": "0x8d43849d32f75790f1f2567af0d2c6382e59821f485736cbb4b20d6e470c576f",
          "transactionIndex": "0x1e",
          "logIndex": "0x92",
          "removed": false
        },
        {
          "address": "0xd985763b49d1c4ec75acd6179f2fa377d4a709fc",
          "topics": [
            "0xddf252ad1be2c89b69c2b068fc378daa952ba7f163c4a11628f55a4df523b3ef",
            "0x0000000000000000000000000000000000000000000000000000000000000000",
            "0x00000000000000000000000012bf0bd36a5d5bda51a78191ec41ba51b60b59e8",
            "0x000000000000000000000000000000000000000000000000000000000000000f"
          ],
          "data": "0x",
          "blockHash": "0x7ed5c51d2cd601b41abc0fe76218adb4c8d8921c5a7ca5d2ddabd8afe6b064cf",
          "blockNumber": "0x13ec95c",
          "transactionHash": "0x8d43849d32f75790f1f2567af0d2c6382e59821f485736cbb4b20d6e470c576f",
          "transactionIndex": "0x1e",
          "logIndex": "0x93",
          "removed": false
        },
        {
          "address": "0xd985763b49d1c4ec75acd6179f2fa377d4a709fc",
          "topics": [
            "0xf8e1a15aba9398e019f0b49df1a4fde98ee17ae345cb5f6b5e2c27f5033e8ce7"
          ],
          "data": "0x000000000000000000000000000000000000000000000000000000000000000f",
          "blockHash": "0x7ed5c51d2cd601b41abc0fe76218adb4c8d8921c5a7ca5d2ddabd8afe6b064cf",
          "blockNumber": "0x13ec95c",
          "transactionHash": "0x8d43849d32f75790f1f2567af0d2c6382e59821f485736cbb4b20d6e470c576f",
          "transactionIndex": "0x1e",
          "logIndex": "0x94",
          "removed": false
        },
        {
          "address": "0xd985763b49d1c4ec75acd6179f2fa377d4a709fc",
          "topics": [
            "0x9f4f924edcbd42fe3de2825e2be11564b45b4ad0cc61e4b60c08880c38ab8f57",
            "0x59cec783959861891222b72e3a5ce0a86a5f36ec2e96ca625b4a687bbb2dc087",
            "0x000000000000000000000000000000000000000000000000000000000000000f"
          ],
          "data": "0x",
          "blockHash": "0x7ed5c51d2cd601b41abc0fe76218adb4c8d8921c5a7ca5d2ddabd8afe6b064cf",
          "blockNumber": "0x13ec95c",
          "transactionHash": "0x8d43849d32f75790f1f2567af0d2c6382e59821f485736cbb4b20d6e470c576f",
          "transactionIndex": "0x1e",
          "logIndex": "0x95",
          "removed": false
        },
        {
          "address": "0xd985763b49d1c4ec75acd6179f2fa377d4a709fc",
          "topics": [
            "0xddf252ad1be2c89b69c2b068fc378daa952ba7f163c4a11628f55a4df523b3ef",
            "0x0000000000000000000000000000000000000000000000000000000000000000",
            "0x00000000000000000000000012bf0bd36a5d5bda51a78191ec41ba51b60b59e8",
            "0x0000000000000000000000000000000000000000000000000000000000000010"
          ],
          "data": "0x",
          "blockHash": "0x7ed5c51d2cd601b41abc0fe76218adb4c8d8921c5a7ca5d2ddabd8afe6b064cf",
          "blockNumber": "0x13ec95c",
          "transactionHash": "0x8d43849d32f75790f1f2567af0d2c6382e59821f485736cbb4b20d6e470c576f",
          "transactionIndex": "0x1e",
          "logIndex": "0x96",
          "removed": false
        },
        {
          "address": "0xd985763b49d1c4ec75acd6179f2fa377d4a709fc",
          "topics": [
            "0xf8e1a15aba9398e019f0b49df1a4fde98ee17ae345cb5f6b5e2c27f5033e8ce7"
          ],
          "data": "0x0000000000000000000000000000000000000000000000000000000000000010",
          "blockHash": "0x7ed5c51d2cd601b41abc0fe76218adb4c8d8921c5a7ca5d2ddabd8afe6b064cf",
          "blockNumber": "0x13ec95c",
          "transactionHash": "0x8d43849d32f75790f1f2567af0d2c6382e59821f485736cbb4b20d6e470c576f",
          "transactionIndex": "0x1e",
          "logIndex": "0x97",
          "removed": false
        },
        {
          "address": "0xd985763b49d1c4ec75acd6179f2fa377d4a709fc",
          "topics": [
            "0x9f4f924edcbd42fe3de2825e2be11564b45b4ad0cc61e4b60c08880c38ab8f57",
            "0x1354f7ba09c8932ca38f301aac041dbbd880e4262d105e1f238677892fdd1ead",
            "0x0000000000000000000000000000000000000000000000000000000000000010"
          ],
          "data": "0x",
          "blockHash": "0x7ed5c51d2cd601b41abc0fe76218adb4c8d8921c5a7ca5d2ddabd8afe6b064cf",
          "blockNumber": "0x13ec95c",
          "transactionHash": "0x8d43849d32f75790f1f2567af0d2c6382e59821f485736cbb4b20d6e470c576f",
          "transactionIndex": "0x1e",
          "logIndex": "0x98",
          "removed": false
        },
        {
          "address": "0xd985763b49d1c4ec75acd6179f2fa377d4a709fc",
          "topics": [
            "0xddf252ad1be2c89b69c2b068fc378daa952ba7f163c4a11628f55a4df523b3ef",
            "0x0000000000000000000000000000000000000000000000000000000000000000",
            "0x00000000000000000000000012bf0bd36a5d5bda51a78191ec41ba51b60b59e8",
            "0x0000000000000000000000000000000000000000000000000000000000000011"
          ],
          "data": "0x",
          "blockHash": "0x7ed5c51d2cd601b41abc0fe76218adb4c8d8921c5a7ca5d2ddabd8afe6b064cf",
          "blockNumber": "0x13ec95c",
          "transactionHash": "0x8d43849d32f75790f1f2567af0d2c6382e59821f485736cbb4b20d6e470c576f",
          "transactionIndex": "0x1e",
          "logIndex": "0x99",
          "removed": false
        },
        {
          "address": "0xd985763b49d1c4ec75acd6179f2fa377d4a709fc",
          "topics": [
            "0xf8e1a15aba9398e019f0b49df1a4fde98ee17ae345cb5f6b5e2c27f5033e8ce7"
          ],
          "data": "0x0000000000000000000000000000000000000000000000000000000000000011",
          "blockHash": "0x7ed5c51d2cd601b41abc0fe76218adb4c8d8921c5a7ca5d2ddabd8afe6b064cf",
          "blockNumber": "0x13ec95c",
          "transactionHash": "0x8d43849d32f75790f1f2567af0d2c6382e59821f485736cbb4b20d6e470c576f",
          "transactionIndex": "0x1e",
          "logIndex": "0x9a",
          "removed": false
        },
        {
          "address": "0xd985763b49d1c4ec75acd6179f2fa377d4a709fc",
          "topics": [
            "0x9f4f924edcbd42fe3de2825e2be11564b45b4ad0cc61e4b60c08880c38ab8f57",
            "0x94e6e9913fa143a53572fa75f0382989b655dba3bf02b358d335e9749dffb81e",
            "0x0000000000000000000000000000000000000000000000000000000000000011"
          ],
          "data": "0x",
          "blockHash": "0x7ed5c51d2cd601b41abc0fe76218adb4c8d8921c5a7ca5d2ddabd8afe6b064cf",
          "blockNumber": "0x13ec95c",
          "transactionHash": "0x8d43849d32f75790f1f2567af0d2c6382e59821f485736cbb4b20d6e470c576f",
          "transactionIndex": "0x1e",
          "logIndex": "0x9b",
          "removed": false
        },
        {
          "address": "0xd985763b49d1c4ec75acd6179f2fa377d4a709fc",
          "topics": [
            "0xddf252ad1be2c89b69c2b068fc378daa952ba7f163c4a11628f55a4df523b3ef",
            "0x0000000000000000000000000000000000000000000000000000000000000000",
            "0x00000000000000000000000012bf0bd36a5d5bda51a78191ec41ba51b60b59e8",
            "0x0000000000000000000000000000000000000000000000000000000000000012"
          ],
          "data": "0x",
          "blockHash": "0x7ed5c51d2cd601b41abc0fe76218adb4c8d8921c5a7ca5d2ddabd8afe6b064cf",
          "blockNumber": "0x13ec95c",
          "transactionHash": "0x8d43849d32f75790f1f2567af0d2c6382e59821f485736cbb4b20d6e470c576f",
          "transactionIndex": "0x1e",
          "logIndex": "0x9c",
          "removed": false
        },
        {
          "address": "0xd985763b49d1c4ec75acd6179f2fa377d4a709fc",
          "topics": [
            "0xf8e1a15aba9398e019f0b49df1a4fde98ee17ae345cb5f6b5e2c27f5033e8ce7"
          ],
          "data": "0x0000000000000000000000000000000000000000000000000000000000000012",
          "blockHash": "0x7ed5c51d2cd601b41abc0fe76218adb4c8d8921c5a7ca5d2ddabd8afe6b064cf",
          "blockNumber": "0x13ec95c",
          "transactionHash": "0x8d43849d32f75790f1f2567af0d2c6382e59821f485736cbb4b20d6e470c576f",
          "transactionIndex": "0x1e",
          "logIndex": "0x9d",
          "removed": false
        },
        {
          "address": "0xd985763b49d1c4ec75acd6179f2fa377d4a709fc",
          "topics": [
            "0x9f4f924edcbd42fe3de2825e2be11564b45b4ad0cc61e4b60c08880c38ab8f57",
            "0x23f5df632201ca9afeda70a0b402b5d5c50c70a6bdf5d2f03fce57ea3ade4b77",
            "0x0000000000000000000000000000000000000000000000000000000000000012"
          ],
          "data": "0x",
          "blockHash": "0x7ed5c51d2cd601b41abc0fe76218adb4c8d8921c5a7ca5d2ddabd8afe6b064cf",
          "blockNumber": "0x13ec95c",
          "transactionHash": "0x8d43849d32f75790f1f2567af0d2c6382e59821f485736cbb4b20d6e470c576f",
          "transactionIndex": "0x1e",
          "logIndex": "0x9e",
          "removed": false
        },
        {
          "address": "0xd985763b49d1c4ec75acd6179f2fa377d4a709fc",
          "topics": [
            "0xddf252ad1be2c89b69c2b068fc378daa952ba7f163c4a11628f55a4df523b3ef",
            "0x0000000000000000000000000000000000000000000000000000000000000000",
            "0x00000000000000000000000012bf0bd36a5d5bda51a78191ec41ba51b60b59e8",
            "0x0000000000000000000000000000000000000000000000000000000000000013"
          ],
          "data": "0x",
          "blockHash": "0x7ed5c51d2cd601b41abc0fe76218adb4c8d8921c5a7ca5d2ddabd8afe6b064cf",
          "blockNumber": "0x13ec95c",
          "transactionHash": "0x8d43849d32f75790f1f2567af0d2c6382e59821f485736cbb4b20d6e470c576f",
          "transactionIndex": "0x1e",
          "logIndex": "0x9f",
          "removed": false
        },
        {
          "address": "0xd985763b49d1c4ec75acd6179f2fa377d4a709fc",
          "topics": [
            "0xf8e1a15aba9398e019f0b49df1a4fde98ee17ae345cb5f6b5e2c27f5033e8ce7"
          ],
          "data": "0x0000000000000000000000000000000000000000000000000000000000000013",
          "blockHash": "0x7ed5c51d2cd601b41abc0fe76218adb4c8d8921c5a7ca5d2ddabd8afe6b064cf",
          "blockNumber": "0x13ec95c",
          "transactionHash": "0x8d43849d32f75790f1f2567af0d2c6382e59821f485736cbb4b20d6e470c576f",
          "transactionIndex": "0x1e",
          "logIndex": "0xa0",
          "removed": false
        },
        {
          "address": "0xd985763b49d1c4ec75acd6179f2fa377d4a709fc",
          "topics": [
            "0x9f4f924edcbd42fe3de2825e2be11564b45b4ad0cc61e4b60c08880c38ab8f57",
            "0xea32055c2db3c1bd0f8d787fcbd5e1e74f62770606451d2030db656f7d7e111f",
            "0x0000000000000000000000000000000000000000000000000000000000000013"
          ],
          "data": "0x",
          "blockHash": "0x7ed5c51d2cd601b41abc0fe76218adb4c8d8921c5a7ca5d2ddabd8afe6b064cf",
          "blockNumber": "0x13ec95c",
          "transactionHash": "0x8d43849d32f75790f1f2567af0d2c6382e59821f485736cbb4b20d6e470c576f",
          "transactionIndex": "0x1e",
          "logIndex": "0xa1",
          "removed": false
        },
        {
          "address": "0xd985763b49d1c4ec75acd6179f2fa377d4a709fc",
          "topics": [
            "0xddf252ad1be2c89b69c2b068fc378daa952ba7f163c4a11628f55a4df523b3ef",
            "0x0000000000000000000000000000000000000000000000000000000000000000",
            "0x00000000000000000000000012bf0bd36a5d5bda51a78191ec41ba51b60b59e8",
            "0x0000000000000000000000000000000000000000000000000000000000000014"
          ],
          "data": "0x",
          "blockHash": "0x7ed5c51d2cd601b41abc0fe76218adb4c8d8921c5a7ca5d2ddabd8afe6b064cf",
          "blockNumber": "0x13ec95c",
          "transactionHash": "0x8d43849d32f75790f1f2567af0d2c6382e59821f485736cbb4b20d6e470c576f",
          "transactionIndex": "0x1e",
          "logIndex": "0xa2",
          "removed": false
        },
        {
          "address": "0xd985763b49d1c4ec75acd6179f2fa377d4a709fc",
          "topics": [
            "0xf8e1a15aba9398e019f0b49df1a4fde98ee17ae345cb5f6b5e2c27f5033e8ce7"
          ],
          "data": "0x0000000000000000000000000000000000000000000000000000000000000014",
          "blockHash": "0x7ed5c51d2cd601b41abc0fe76218adb4c8d8921c5a7ca5d2ddabd8afe6b064cf",
          "blockNumber": "0x13ec95c",
          "transactionHash": "0x8d43849d32f75790f1f2567af0d2c6382e59821f485736cbb4b20d6e470c576f",
          "transactionIndex": "0x1e",
          "logIndex": "0xa3",
          "removed": false
        },
        {
          "address": "0xd985763b49d1c4ec75acd6179f2fa377d4a709fc",
          "topics": [
            "0x9f4f924edcbd42fe3de2825e2be11564b45b4ad0cc61e4b60c08880c38ab8f57",
            "0xef42369ff546d38e261f30cd13dabe840fb3c8260fd8d03040838e8e6cb04ba3",
            "0x0000000000000000000000000000000000000000000000000000000000000014"
          ],
          "data": "0x",
          "blockHash": "0x7ed5c51d2cd601b41abc0fe76218adb4c8d8921c5a7ca5d2ddabd8afe6b064cf",
          "blockNumber": "0x13ec95c",
          "transactionHash": "0x8d43849d32f75790f1f2567af0d2c6382e59821f485736cbb4b20d6e470c576f",
          "transactionIndex": "0x1e",
          "logIndex": "0xa4",
          "removed": false
        },
        {
          "address": "0xd985763b49d1c4ec75acd6179f2fa377d4a709fc",
          "topics": [
            "0xddf252ad1be2c89b69c2b068fc378daa952ba7f163c4a11628f55a4df523b3ef",
            "0x0000000000000000000000000000000000000000000000000000000000000000",
            "0x00000000000000000000000012bf0bd36a5d5bda51a78191ec41ba51b60b59e8",
            "0x0000000000000000000000000000000000000000000000000000000000000015"
          ],
          "data": "0x",
          "blockHash": "0x7ed5c51d2cd601b41abc0fe76218adb4c8d8921c5a7ca5d2ddabd8afe6b064cf",
          "blockNumber": "0x13ec95c",
          "transactionHash": "0x8d43849d32f75790f1f2567af0d2c6382e59821f485736cbb4b20d6e470c576f",
          "transactionIndex": "0x1e",
          "logIndex": "0xa5",
          "removed": false
        },
        {
          "address": "0xd985763b49d1c4ec75acd6179f2fa377d4a709fc",
          "topics": [
            "0xf8e1a15aba9398e019f0b49df1a4fde98ee17ae345cb5f6b5e2c27f5033e8ce7"
          ],
          "data": "0x0000000000000000000000000000000000000000000000000000000000000015",
          "blockHash": "0x7ed5c51d2cd601b41abc0fe76218adb4c8d8921c5a7ca5d2ddabd8afe6b064cf",
          "blockNumber": "0x13ec95c",
          "transactionHash": "0x8d43849d32f75790f1f2567af0d2c6382e59821f485736cbb4b20d6e470c576f",
          "transactionIndex": "0x1e",
          "logIndex": "0xa6",
          "removed": false
        },
        {
          "address": "0xd985763b49d1c4ec75acd6179f2fa377d4a709fc",
          "topics": [
            "0x9f4f924edcbd42fe3de2825e2be11564b45b4ad0cc61e4b60c08880c38ab8f57",
            "0xe53789c2fc12c11eb80173432a49dc557c4ce33e7273f4bd817e58b82d99c7da",
            "0x0000000000000000000000000000000000000000000000000000000000000015"
          ],
          "data": "0x",
          "blockHash": "0x7ed5c51d2cd601b41abc0fe76218adb4c8d8921c5a7ca5d2ddabd8afe6b064cf",
          "blockNumber": "0x13ec95c",
          "transactionHash": "0x8d43849d32f75790f1f2567af0d2c6382e59821f485736cbb4b20d6e470c576f",
          "transactionIndex": "0x1e",
          "logIndex": "0xa7",
          "removed": false
        },
        {
          "address": "0xd985763b49d1c4ec75acd6179f2fa377d4a709fc",
          "topics": [
            "0xddf252ad1be2c89b69c2b068fc378daa952ba7f163c4a11628f55a4df523b3ef",
            "0x0000000000000000000000000000000000000000000000000000000000000000",
            "0x00000000000000000000000012bf0bd36a5d5bda51a78191ec41ba51b60b59e8",
            "0x0000000000000000000000000000000000000000000000000000000000000016"
          ],
          "data": "0x",
          "blockHash": "0x7ed5c51d2cd601b41abc0fe76218adb4c8d8921c5a7ca5d2ddabd8afe6b064cf",
          "blockNumber": "0x13ec95c",
          "transactionHash": "0x8d43849d32f75790f1f2567af0d2c6382e59821f485736cbb4b20d6e470c576f",
          "transactionIndex": "0x1e",
          "logIndex": "0xa8",
          "removed": false
        },
        {
          "address": "0xd985763b49d1c4ec75acd6179f2fa377d4a709fc",
          "topics": [
            "0xf8e1a15aba9398e019f0b49df1a4fde98ee17ae345cb5f6b5e2c27f5033e8ce7"
          ],
          "data": "0x0000000000000000000000000000000000000000000000000000000000000016",
          "blockHash": "0x7ed5c51d2cd601b41abc0fe76218adb4c8d8921c5a7ca5d2ddabd8afe6b064cf",
          "blockNumber": "0x13ec95c",
          "transactionHash": "0x8d43849d32f75790f1f2567af0d2c6382e59821f485736cbb4b20d6e470c576f",
          "transactionIndex": "0x1e",
          "logIndex": "0xa9",
          "removed": false
        },
        {
          "address": "0xd985763b49d1c4ec75acd6179f2fa377d4a709fc",
          "topics": [
            "0x9f4f924edcbd42fe3de2825e2be11564b45b4ad0cc61e4b60c08880c38ab8f57",
            "0x6ef977eb801c8883a978e90baed15b8cc70dd3cb6120aed744f8cf7d2956ff22",
            "0x0000000000000000000000000000000000000000000000000000000000000016"
          ],
          "data": "0x",
          "blockHash": "0x7ed5c51d2cd601b41abc0fe76218adb4c8d8921c5a7ca5d2ddabd8afe6b064cf",
          "blockNumber": "0x13ec95c",
          "transactionHash": "0x8d43849d32f75790f1f2567af0d2c6382e59821f485736cbb4b20d6e470c576f",
          "transactionIndex": "0x1e",
          "logIndex": "0xaa",
          "removed": false
        },
        {
          "address": "0xd985763b49d1c4ec75acd6179f2fa377d4a709fc",
          "topics": [
            "0xddf252ad1be2c89b69c2b068fc378daa952ba7f163c4a11628f55a4df523b3ef",
            "0x0000000000000000000000000000000000000000000000000000000000000000",
            "0x00000000000000000000000012bf0bd36a5d5bda51a78191ec41ba51b60b59e8",
            "0x0000000000000000000000000000000000000000000000000000000000000017"
          ],
          "data": "0x",
          "blockHash": "0x7ed5c51d2cd601b41abc0fe76218adb4c8d8921c5a7ca5d2ddabd8afe6b064cf",
          "blockNumber": "0x13ec95c",
          "transactionHash": "0x8d43849d32f75790f1f2567af0d2c6382e59821f485736cbb4b20d6e470c576f",
          "transactionIndex": "0x1e",
          "logIndex": "0xab",
          "removed": false
        },
        {
          "address": "0xd985763b49d1c4ec75acd6179f2fa377d4a709fc",
          "topics": [
            "0xf8e1a15aba9398e019f0b49df1a4fde98ee17ae345cb5f6b5e2c27f5033e8ce7"
          ],
          "data": "0x0000000000000000000000000000000000000000000000000000000000000017",
          "blockHash": "0x7ed5c51d2cd601b41abc0fe76218adb4c8d8921c5a7ca5d2ddabd8afe6b064cf",
          "blockNumber": "0x13ec95c",
          "transactionHash": "0x8d43849d32f75790f1f2567af0d2c6382e59821f485736cbb4b20d6e470c576f",
          "transactionIndex": "0x1e",
          "logIndex": "0xac",
          "removed": false
        },
        {
          "address": "0xd985763b49d1c4ec75acd6179f2fa377d4a709fc",
          "topics": [
            "0x9f4f924edcbd42fe3de2825e2be11564b45b4ad0cc61e4b60c08880c38ab8f57",
            "0x4acb370b05dd6e8edb51c03a2dcb373606454a0a3db175ef488b6d46c90843aa",
            "0x0000000000000000000000000000000000000000000000000000000000000017"
          ],
          "data": "0x",
          "blockHash": "0x7ed5c51d2cd601b41abc0fe76218adb4c8d8921c5a7ca5d2ddabd8afe6b064cf",
          "blockNumber": "0x13ec95c",
          "transactionHash": "0x8d43849d32f75790f1f2567af0d2c6382e59821f485736cbb4b20d6e470c576f",
          "transactionIndex": "0x1e",
          "logIndex": "0xad",
          "removed": false
        },
        {
          "address": "0xd985763b49d1c4ec75acd6179f2fa377d4a709fc",
          "topics": [
            "0xddf252ad1be2c89b69c2b068fc378daa952ba7f163c4a11628f55a4df523b3ef",
            "0x0000000000000000000000000000000000000000000000000000000000000000",
            "0x00000000000000000000000012bf0bd36a5d5bda51a78191ec41ba51b60b59e8",
            "0x0000000000000000000000000000000000000000000000000000000000000018"
          ],
          "data": "0x",
          "blockHash": "0x7ed5c51d2cd601b41abc0fe76218adb4c8d8921c5a7ca5d2ddabd8afe6b064cf",
          "blockNumber": "0x13ec95c",
          "transactionHash": "0x8d43849d32f75790f1f2567af0d2c6382e59821f485736cbb4b20d6e470c576f",
          "transactionIndex": "0x1e",
          "logIndex": "0xae",
          "removed": false
        },
        {
          "address": "0xd985763b49d1c4ec75acd6179f2fa377d4a709fc",
          "topics": [
            "0xf8e1a15aba9398e019f0b49df1a4fde98ee17ae345cb5f6b5e2c27f5033e8ce7"
          ],
          "data": "0x0000000000000000000000000000000000000000000000000000000000000018",
          "blockHash": "0x7ed5c51d2cd601b41abc0fe76218adb4c8d8921c5a7ca5d2ddabd8afe6b064cf",
          "blockNumber": "0x13ec95c",
          "transactionHash": "0x8d43849d32f75790f1f2567af0d2c6382e59821f485736cbb4b20d6e470c576f",
          "transactionIndex": "0x1e",
          "logIndex": "0xaf",
          "removed": false
        },
        {
          "address": "0xd985763b49d1c4ec75acd6179f2fa377d4a709fc",
          "topics": [
            "0x9f4f924edcbd42fe3de2825e2be11564b45b4ad0cc61e4b60c08880c38ab8f57",
            "0x5d3eb6c6e6729fdd68bed8f9562ced036c36f65d79d82eee4c8c02acdbe8e9e4",
            "0x0000000000000000000000000000000000000000000000000000000000000018"
          ],
          "data": "0x",
          "blockHash": "0x7ed5c51d2cd601b41abc0fe76218adb4c8d8921c5a7ca5d2ddabd8afe6b064cf",
          "blockNumber": "0x13ec95c",
          "transactionHash": "0x8d43849d32f75790f1f2567af0d2c6382e59821f485736cbb4b20d6e470c576f",
          "transactionIndex": "0x1e",
          "logIndex": "0xb0",
          "removed": false
        },
        {
          "address": "0xd985763b49d1c4ec75acd6179f2fa377d4a709fc",
          "topics": [
            "0xddf252ad1be2c89b69c2b068fc378daa952ba7f163c4a11628f55a4df523b3ef",
            "0x0000000000000000000000000000000000000000000000000000000000000000",
            "0x00000000000000000000000012bf0bd36a5d5bda51a78191ec41ba51b60b59e8",
            "0x0000000000000000000000000000000000000000000000000000000000000019"
          ],
          "data": "0x",
          "blockHash": "0x7ed5c51d2cd601b41abc0fe76218adb4c8d8921c5a7ca5d2ddabd8afe6b064cf",
          "blockNumber": "0x13ec95c",
          "transactionHash": "0x8d43849d32f75790f1f2567af0d2c6382e59821f485736cbb4b20d6e470c576f",
          "transactionIndex": "0x1e",
          "logIndex": "0xb1",
          "removed": false
        },
        {
          "address": "0xd985763b49d1c4ec75acd6179f2fa377d4a709fc",
          "topics": [
            "0xf8e1a15aba9398e019f0b49df1a4fde98ee17ae345cb5f6b5e2c27f5033e8ce7"
          ],
          "data": "0x0000000000000000000000000000000000000000000000000000000000000019",
          "blockHash": "0x7ed5c51d2cd601b41abc0fe76218adb4c8d8921c5a7ca5d2ddabd8afe6b064cf",
          "blockNumber": "0x13ec95c",
          "transactionHash": "0x8d43849d32f75790f1f2567af0d2c6382e59821f485736cbb4b20d6e470c576f",
          "transactionIndex": "0x1e",
          "logIndex": "0xb2",
          "removed": false
        },
        {
          "address": "0xd985763b49d1c4ec75acd6179f2fa377d4a709fc",
          "topics": [
            "0x9f4f924edcbd42fe3de2825e2be11564b45b4ad0cc61e4b60c08880c38ab8f57",
            "0xab5208296f4ead6cad174d12c0bf21d44395bd060d55109d0f8774fd23706f69",
            "0x0000000000000000000000000000000000000000000000000000000000000019"
          ],
          "data": "0x",
          "blockHash": "0x7ed5c51d2cd601b41abc0fe76218adb4c8d8921c5a7ca5d2ddabd8afe6b064cf",
          "blockNumber": "0x13ec95c",
          "transactionHash": "0x8d43849d32f75790f1f2567af0d2c6382e59821f485736cbb4b20d6e470c576f",
          "transactionIndex": "0x1e",
          "logIndex": "0xb3",
          "removed": false
        }
      ],
      "logsBloom": "0x34000000104000000840004000840104008002048004000002080000000801000020000040400a8000040000040000410000300006848080002010108024000000303000000800090000002a00100000004200000004000000000000000200040a00000022001000010000800042080220000000400002000000801004000004088000040000080001000000800005500800191080040001000000000080220040000011000000002020010001000800204000000080206820a0008804024080421010060000201004000000000000000020000081002100200001000000602a2001000a0001000020000000008000000000010000800004000800a000880020",
      "type": "0x2",
      "transactionHash": "0x8d43849d32f75790f1f2567af0d2c6382e59821f485736cbb4b20d6e470c576f",
      "transactionIndex": "0x1e",
      "blockHash": "0x7ed5c51d2cd601b41abc0fe76218adb4c8d8921c5a7ca5d2ddabd8afe6b064cf",
      "blockNumber": "0x13ec95c",
      "gasUsed": "0x454e08",
      "effectiveGasPrice": "0x2c7a4",
      "blobGasUsed": "0x0",
      "from": "0x11296402a8f2373fb7fdb57296c1391856695eb3",
      "to": "0xd985763b49d1c4ec75acd6179f2fa377d4a709fc",
      "contractAddress": null,
      "l1BaseFeeScalar": "0x44d",
      "l1BlobBaseFee": "0x198815",
      "l1BlobBaseFeeScalar": "0xa118b",
      "l1Fee": "0x207c0bf683",
      "l1GasPrice": "0x2534c2b02",
      "l1GasUsed": "0x3140"
    }
  ],
  "libraries": [],
  "pending": [],
  "returns": {},
  "timestamp": 1737552288,
  "chain": 84532,
  "commit": "a525bbf"
}